{
  "contractName": "Arrays",
  "abi": [
    {
      "constant": false,
      "inputs": [],
      "name": "testArrayOps",
      "outputs": [],
      "payable": false,
      "stateMutability": "nonpayable",
      "type": "function"
    }
  ],
  "bytecode": "0x60606040526040805190810160405280600160ff168152602001600260ff1681525060009060026100319291906100a0565b5060017f010000000000000000000000000000000000000000000000000000000000000002600560006101000a81548160ff02191690837f010000000000000000000000000000000000000000000000000000000000000090040217905550341561009b57600080fd5b61010a565b82600381019282156100d4579160200282015b828111156100d3578251829060ff169055916020019190600101906100b3565b5b5090506100e191906100e5565b5090565b61010791905b808211156101035760008160009055506001016100eb565b5090565b90565b610672806101196000396000f300606060405260043610610041576000357c0100000000000000000000000000000000000000000000000000000000900463ffffffff1680639afdc46c14610046575b600080fd5b341561005157600080fd5b61005961005b565b005b6100636102cb565b60086040518059106100725750595b9080825280602002602001820160405250600490805190602001906100989291906102df565b50606060405190810160405280600160000b60000b8152602001600260000b8152602001600360000b81525060039060036100d4929190610385565b5060086040518059106100e45750595b9080825280602002602001820160405250905060087f010000000000000000000000000000000000000000000000000000000000000002600a600081548110151561012b57fe5b90600052602060002090602091828204019190066101000a81548160ff02191690837f01000000000000000000000000000000000000000000000000000000000000009004021790555060097f010000000000000000000000000000000000000000000000000000000000000002600c600681546001816001161561010002031660029004811015156101ba57fe5b8154600116156101d95790600052602060002090602091828204019190065b601f036101000a81548160ff021916907f010000000000000000000000000000000000000000000000000000000000000084040217905550600a600c81610220919061042f565b50600c8054600181600116156101000203166002900480600101828161024691906104f8565b91908154600116156102675790600052602060002090602091828204019190065b60017f01000000000000000000000000000000000000000000000000000000000000000290919091601f036101000a81548160ff021916907f0100000000000000000000000000000000000000000000000000000000000000840402179055505050565b602060405190810160405280600081525090565b82805482825590600052602060002090601f016020900481019282156103745791602002820160005b8382111561034557835183826101000a81548160ff0219169083151502179055509260200192600101602081600001049283019260010302610308565b80156103725782816101000a81549060ff0219169055600101602081600001049283019260010302610345565b505b50905061038191906105c1565b5090565b82805482825590600052602060002090601f0160209004810192821561041e5791602002820160005b838211156103ef57835183826101000a81548160ff021916908360000b60ff16021790555092602001926001016020816000010492830192600103026103ae565b801561041c5782816101000a81549060ff02191690556001016020816000010492830192600103026103ef565b505b50905061042b91906105f1565b5090565b81546001816001161561010002031660029004825481601f1061048a5782601f1061046f575b826008026101000360020a809104028280011783556104f3565b60ff19168360005260206000205581800160010183556104f3565b82601f106104ba575082600052602060002080549082601f01602090048101906104b49190610621565b50610455565b508180016001018355818115116104f357601f016020900481601f016020900483600052602060002091820191016104f29190610621565b5b505050565b81546001816001161561010002031660029004825481601f106105535782601f10610538575b826008026101000360020a809104028280011783556105bc565b60ff19168360005260206000205581800160010183556105bc565b82601f10610583575082600052602060002080549082601f016020900481019061057d9190610621565b5061051e565b508180016001018355818115116105bc57601f016020900481601f016020900483600052602060002091820191016105bb9190610621565b5b505050565b6105ee91905b808211156105ea57600081816101000a81549060ff0219169055506001016105c7565b5090565b90565b61061e91905b8082111561061a57600081816101000a81549060ff0219169055506001016105f7565b5090565b90565b61064391905b8082111561063f576000816000905550600101610627565b5090565b905600a165627a7a72305820ba03126ed28de0f153052bc4191c17f50e947622de4326e8e1c5b1b0e907377c0029",
  "source": "pragma solidity ^0.4.8;\n\ncontract Arrays {\n\n  // Elementary type array in storage\n  int[3]     staticIntArray = [1,2];    //Last element set to 0\n  int8[]     dynamicIntArray;\n  bool[]     dynamicBoolArray;\n\n  // Byte type storage\n  // Newer version of compiler requires data to be specified in hex otherwise you get a warning - Aug 8, 2017\n  byte    byteType = 0x01; \n\n  // byte array\n  byte[120] bigArray;\n\n  // Dynamic byte array\n  byte[]    byteData;\n  // Fixed length byte array\n  bytes8    bytes8Data;\n  // Dynamic byte array\n  bytes     bytesData;\n\n\n\n  function testArrayOps() {\n\n    // Allocate memory for 8 elements to the dynamic bool array\n    dynamicBoolArray = new bool[](8);\n\n    // Allocate memory and initialize elements in the int array\n    // Explicit conversion needed from uint8 to int8\n    // Later versions of compiler requires the 1st element to be typecasted - August 9, 2017\n    dynamicIntArray= [int8(1),2,3];\n\n    // This is good\n    uint8[] memory memoryArray;\n    // Allocation with assignment not allowed for memory arrays\n    // memoryArray = [1,2,3];\n    memoryArray = new uint8[](8);\n    // This will give a compile error - \n    // push() not available for memory array\n    // memoryArray.push(1);\n    // memoryArray.length=6;\n    \n    // This is OK\n    byteData[0] = 0x08;\n\n    // This is not allowed - its READ Only\n    // bytes8Data[6] = 0;\n\n    // This is OK\n    bytesData[6] = 0x09;\n\n    // Dynamic array - bytes - These are OK\n    bytesData.length = 10;\n    bytesData.push(1);\n\n    \n  }\n}\n",
  "sourcePath": "/home/vagrant/SravzNew/Sravz.BlockChain/contracts/Arrays.sol",
  "compiler": {
    "name": "solc",
    "version": "0.4.18+commit.9cf6e910.Emscripten.clang"
  },
  "schemaVersion": "1.0.1",
  "updatedAt": "2017-12-18T20:54:57.514Z"
}