{
  "contractName": "CheckNulls",
  "abi": [
    {
      "constant": false,
      "inputs": [],
      "name": "checkZeroValues",
      "outputs": [],
      "payable": false,
      "stateMutability": "nonpayable",
      "type": "function"
    }
  ],
  "bytecode": "0x6060604052341561000f57600080fd5b6102008061001e6000396000f300606060405260043610610041576000357c0100000000000000000000000000000000000000000000000000000000900463ffffffff1680630cc4e13814610046575b600080fd5b341561005157600080fd5b61005961005b565b005b60008073ffffffffffffffffffffffffffffffffffffffff166000809054906101000a900473ffffffffffffffffffffffffffffffffffffffff1673ffffffffffffffffffffffffffffffffffffffff1614905060008060009054906101000a900473ffffffffffffffffffffffffffffffffffffffff1673ffffffffffffffffffffffffffffffffffffffff161490506000600180546001816001161561010002031660029004905014905060006001026002546000191614806101295750600060010260025460001916145b90506000600a8054905014905060006003600060078110151561014857fe5b01541490506000600b60000160009054906101000a900473ffffffffffffffffffffffffffffffffffffffff1673ffffffffffffffffffffffffffffffffffffffff161490506000600b6001018054600181600116156101000203166002900490501490506000600102600d6000601360ff1681526020019081526020016000205460001916149050505600a165627a7a72305820ec2d72e51bfd1bb97fe67dd92d66d338141220672869ede802febe955ce1a4ac0029",
  "source": "pragma solidity ^0.4.4;\n\n/**\n * Solidity does not have the concept of null\n * So how do you check if the variable is initialized or not?\n **/\ncontract CheckNulls {\n\n  // Un initialized storage variable declarations\n  // Initialized to 0s\n  struct SomeStruct {\n    address owner;\n    string  name;\n  }\n  \n  address     owner;\n  string      name;\n  bytes32     keyword;\n  int[7]      staticArray;\n  uint8[]     dynamicArray;\n  SomeStruct  someStruct;\n  mapping(uint8 => bytes32) map;\n  \n\n  // This function is simply to demonstrate how\n  // 0 values are checked for various data types\n  function  checkZeroValues(){\n    bool  flag;\n    // All of the following will set flag to true\n    flag = (owner == address(0x0));\n    flag = (owner == 0x0);\n    // For string check its length\n    flag = (bytes(name).length == 0);\n    // For bytes##\n    flag = (keyword == 0  ||  keyword == 0x0);\n    // For dynamic arrays\n    flag = (dynamicArray.length == 0);\n    // For static array check depends on the element type\n    flag = (staticArray[0] == 0);\n    // Struct - check for some attribute of struct for 0 value\n    flag = (someStruct.owner == 0x0);\n    flag = (bytes(someStruct.name).length == 0);\n    // mapping - all keys have 0 values i.e., all keys exist\n    flag = (map[19] == 0x0);\n  }\n\n}\n",
  "sourcePath": "/home/vagrant/SravzNew/Sravz.BlockChain/contracts/CheckNulls.sol",
  "compiler": {
    "name": "solc",
    "version": "0.4.18+commit.9cf6e910.Emscripten.clang"
  },
  "schemaVersion": "1.0.1",
  "updatedAt": "2017-12-18T20:54:57.540Z"
}