{
  "contractName": "DataLocation",
  "abi": [
    {
      "constant": false,
      "inputs": [
        {
          "name": "args",
          "type": "uint256[]"
        }
      ],
      "name": "defaultAction",
      "outputs": [
        {
          "name": "dat",
          "type": "uint256[]"
        }
      ],
      "payable": false,
      "stateMutability": "nonpayable",
      "type": "function"
    },
    {
      "constant": false,
      "inputs": [],
      "name": "testFunction",
      "outputs": [],
      "payable": false,
      "stateMutability": "nonpayable",
      "type": "function"
    },
    {
      "inputs": [],
      "payable": false,
      "stateMutability": "nonpayable",
      "type": "constructor"
    }
  ],
  "bytecode": "0x6060604052341561000f57600080fd5b6101ee8061001e6000396000f30060606040526004361061004c576000357c0100000000000000000000000000000000000000000000000000000000900463ffffffff168063a2c716d314610051578063e16b4a9b14610100575b600080fd5b341561005c57600080fd5b6100a9600480803590602001908201803590602001908080602002602001604051908101604052809392919081815260200183836020028082843782019150505050505091905050610115565b6040518080602001828103825283818151815260200191508051906020019060200280838360005b838110156100ec5780820151818401526020810190506100d1565b505050509050019250505060405180910390f35b341561010b57600080fd5b610113610122565b005b61011d6101ae565b919050565b61012a6101ae565b6000806001915061013a83610115565b5060009050610148816101a7565b506101a18180548060200260200160405190810160405280929190818152602001828054801561019757602002820191906000526020600020905b815481526020019060010190808311610183575b5050505050610115565b50505050565b6000919050565b6020604051908101604052806000815250905600a165627a7a72305820df492bdf5a45f50c8e7f0909c3e807b6db9664c20262766443041722dac31af40029",
  "source": "pragma solidity ^0.4.4;\n\n/**\n * THIS CODE WILL THROW Compilation Errors\n * Code for demonstrating the use of keyword memory and storage\n * \n * PLEASE IGNORE THE Warning \"Unused local variable\" As this is demo code ... In real code you would address the warnings\n * Aug 8, 2017\n **/\n\n\ncontract DataLocation {\n\n  // Always in storage\n  uint[]  allPoints;\n\n  string  name;\n\n  // These would give compilation error as here you can declare only storage vars\n  //uint memory amount;\n  //uint[] memory some;\n\n  function  defaultAction(uint[] args) returns (uint[] dat) {\n    //...code..\n    \n  }\n  function  forcedAction(uint[] storage args) internal returns(uint[] storage dat) {\n    //...code...\n  }\n\n  function testFunction(){\n    // This will give error\n    // uint[]  localArray;\n\n    uint[]  memory   memoryArray;\n    // By default value types are created in memory\n    // But you may declare them as reference to storage\n    // Changes to loalName will be reflected in the storage va name\n    string storage localName = name;\n\n    // This will give error - requires array in storage\n    // forcedAction(memoryArray);\n\n    // This is fine\n    defaultAction(memoryArray);\n\n    // Creates a refernce\n    uint[] storage  pointer = allPoints;\n    // This is fine caz pointer is a reference to storage array\n    forcedAction(pointer);\n    // This is fine too\n    defaultAction(pointer);\n \n  }\n\n  function DataLocation() {\n    // constructor\n  }\n\n}\n",
  "sourcePath": "/home/vagrant/SravzNew/Sravz.BlockChain/contracts/DataLocation.sol",
  "compiler": {
    "name": "solc",
    "version": "0.4.18+commit.9cf6e910.Emscripten.clang"
  },
  "schemaVersion": "1.0.1",
  "updatedAt": "2017-12-18T20:54:57.546Z"
}