{
  "contractName": "Events",
  "abi": [
    {
      "constant": false,
      "inputs": [
        {
          "name": "name",
          "type": "string"
        }
      ],
      "name": "bid",
      "outputs": [],
      "payable": true,
      "stateMutability": "payable",
      "type": "function"
    },
    {
      "constant": false,
      "inputs": [],
      "name": "getHighBidder",
      "outputs": [
        {
          "name": "name",
          "type": "string"
        }
      ],
      "payable": false,
      "stateMutability": "nonpayable",
      "type": "function"
    },
    {
      "inputs": [],
      "payable": false,
      "stateMutability": "nonpayable",
      "type": "constructor"
    },
    {
      "anonymous": false,
      "inputs": [
        {
          "indexed": true,
          "name": "who",
          "type": "address"
        },
        {
          "indexed": false,
          "name": "name",
          "type": "string"
        },
        {
          "indexed": false,
          "name": "howmuch",
          "type": "uint256"
        }
      ],
      "name": "NewHighBid",
      "type": "event"
    },
    {
      "anonymous": false,
      "inputs": [
        {
          "indexed": true,
          "name": "who",
          "type": "address"
        },
        {
          "indexed": false,
          "name": "name",
          "type": "string"
        },
        {
          "indexed": false,
          "name": "howmuch",
          "type": "uint256"
        }
      ],
      "name": "BidFailed",
      "type": "event"
    }
  ],
  "bytecode": "0x6060604052620697804201600055341561001857600080fd5b6103e86001600201819055506104d8806100336000396000f30060606040526004361061004c576000357c0100000000000000000000000000000000000000000000000000000000900463ffffffff1680637aef951c146100515780637d1184f0146100a3575b600080fd5b6100a1600480803590602001908201803590602001908080601f01602080910402602001604051908101604052809392919081815260200183838082843782019150505050505091905050610131565b005b34156100ae57600080fd5b6100b6610347565b6040518080602001828103825283818151815260200191508051906020019080838360005b838110156100f65780820151818401526020810190506100db565b50505050905090810190601f1680156101235780820380516001836020036101000a031916815260200191505b509250505060405180910390f35b60005442101561033f57600a6001600201540134111561027a576101536103f1565b33600160000160006101000a81548173ffffffffffffffffffffffffffffffffffffffff021916908373ffffffffffffffffffffffffffffffffffffffff160217905550806001800190805190602001906101af9291906103f3565b50346001600201819055503373ffffffffffffffffffffffffffffffffffffffff167fd7f5ff45ff6e232308acbf841d8134c8c65dd893722727b64eef24b489fb893d82346040518080602001838152602001828103825284818151815260200191508051906020019080838360005b8381101561023a57808201518184015260208101905061021f565b50505050905090810190601f1680156102675780820380516001836020036101000a031916815260200191505b50935050505060405180910390a261033a565b3373ffffffffffffffffffffffffffffffffffffffff167faab6e917b2089e850050512474058e20b2f6dfb93b76ac38d1921588535627d282346040518080602001838152602001828103825284818151815260200191508051906020019080838360005b838110156102fa5780820151818401526020810190506102df565b50505050905090810190601f1680156103275780820380516001836020036101000a031916815260200191505b50935050505060405180910390a2600080fd5b610344565b600080fd5b50565b61034f610473565b600180018054600181600116156101000203166002900480601f0160208091040260200160405190810160405280929190818152602001828054600181600116156101000203166002900480156103e75780601f106103bc576101008083540402835291602001916103e7565b820191906000526020600020905b8154815290600101906020018083116103ca57829003601f168201915b5050505050905090565b565b828054600181600116156101000203166002900490600052602060002090601f016020900481019282601f1061043457805160ff1916838001178555610462565b82800160010185558215610462579182015b82811115610461578251825591602001919060010190610446565b5b50905061046f9190610487565b5090565b602060405190810160405280600081525090565b6104a991905b808211156104a557600081600090555060010161048d565b5090565b905600a165627a7a72305820aa038f7d4964a97a57fd10d800154c354f27befc50cceb48f3d765f6d8d9a79f0029",
  "source": "pragma solidity ^0.4.4;\n\n/**\n * Part of a course on Blockchain\n * Shows how events are used by contracts\n **/\ncontract Events {\n\n  // Represents the time when the bidding will end\n  uint    biddingEnds = now + 5 days;\n  \n  struct HighBidder {\n    address   bidder;\n    string    name;\n    uint      bid;\n  }\n\n  HighBidder  highBidder;\n\n  // Events emitted by contract\n  // Whenever a high bid is received\n  event NewHighBid(address indexed who, string name, uint howmuch);\n  // High bid preceded by this event\n  event BidFailed(address indexed who, string name, uint howmuch);\n\n  // Ensures that bid can be received i.e, auction not ended\n  modifier timed {\n    if(now < biddingEnds){\n      _;\n    } else {\n      /**throw;*  Throw deprecated */\n      revert();\n    }\n  }\n\n  \n\n  function Events() {\n    // Starts the bidding at 1000 wei\n    highBidder.bid = 1000;\n  }\n\n  function  bid(string name) payable timed {\n    // Bids allowed in increments of 10 wei\n    if(msg.value > (highBidder.bid + 10)){\n      // Return the loser's bid\n      returnBidToLoser();\n      // Make the caller the highBidder\n      highBidder.bidder = msg.sender;\n      highBidder.name = name;\n      highBidder.bid = msg.value;\n      // Received a high bid - emit event\n      NewHighBid(msg.sender, name, msg.value);\n    } else {\n      // Received bid less than high bid emit event\n      BidFailed(msg.sender, name, msg.value);\n      // throw would return the ethers\n      /**throw;* Deprecated*/ \n      revert();\n    }\n  }\n\n  function  getHighBidder() returns(string name){\n    name = highBidder.name;\n  }\n\n  // Make sure this function is private\n  function   returnBidToLoser() private{\n    // Here the weis are returned to the address of the loser\n    // To be coded\n  }\n\n}\n",
  "sourcePath": "/home/vagrant/SravzNew/Sravz.BlockChain/contracts/Events.sol",
  "compiler": {
    "name": "solc",
    "version": "0.4.18+commit.9cf6e910.Emscripten.clang"
  },
  "schemaVersion": "1.0.1",
  "updatedAt": "2017-12-20T03:21:18.005Z"
}