{
  "contractName": "FuncTypesCaller",
  "abi": [
    {
      "constant": false,
      "inputs": [
        {
          "name": "funcTypesAddr",
          "type": "address"
        },
        {
          "name": "str",
          "type": "string"
        }
      ],
      "name": "callExternal",
      "outputs": [
        {
          "name": "",
          "type": "uint256"
        }
      ],
      "payable": false,
      "stateMutability": "nonpayable",
      "type": "function"
    },
    {
      "constant": false,
      "inputs": [
        {
          "name": "funcTypesAddr",
          "type": "address"
        },
        {
          "name": "str",
          "type": "string"
        }
      ],
      "name": "callAsTransaction",
      "outputs": [
        {
          "name": "",
          "type": "uint256"
        }
      ],
      "payable": false,
      "stateMutability": "nonpayable",
      "type": "function"
    }
  ],
  "bytecode": "0x6060604052341561000f57600080fd5b6102db8061001e6000396000f30060606040526004361061004c576000357c0100000000000000000000000000000000000000000000000000000000900463ffffffff16806310725fe01461005157806348d5b907146100b2575b600080fd5b341561005c57600080fd5b61009c600480803573ffffffffffffffffffffffffffffffffffffffff169060200190919080359060200190820180359060200191909192905050610113565b6040518082815260200191505060405180910390f35b34156100bd57600080fd5b6100fd600480803573ffffffffffffffffffffffffffffffffffffffff1690602001909190803590602001908201803590602001919091929050506101cf565b6040518082815260200191505060405180910390f35b6000808490508073ffffffffffffffffffffffffffffffffffffffff16630d35b47385856000604051602001526040518363ffffffff167c01000000000000000000000000000000000000000000000000000000000281526004018080602001828103825284848281815260200192508082843782019150509350505050602060405180830381600087803b15156101aa57600080fd5b6102c65a03f115156101bb57600080fd5b505050604051805190509150509392505050565b6000808473ffffffffffffffffffffffffffffffffffffffff1660405180807f696e64697265637443616c6c28737472696e6729000000000000000000000000815250601401905060405180910390207c0100000000000000000000000000000000000000000000000000000000900485856040518363ffffffff167c01000000000000000000000000000000000000000000000000000000000281526004018083838082843782019150509250505060006040518083038160008761646e5a03f19250505090508015156102a357600080fd5b600091505093925050505600a165627a7a72305820318e5b16753b10b414cef56650ad9deaf8e6ed952df2b6c28bb8aabe8b16ef5f0029",
  "source": "pragma solidity ^0.4.4;\n\n// This is needed for getting the function signature\n// You can avoid this inclusion by using the address.call\n// by using funtion callAsTransaction\nimport \"./FuncTypes.sol\";\n\n/**\n * Demonstrates how a contract calls another contract\n **/\ncontract FuncTypesCaller {\n  \n  // Function takes the address of FuncTypes & String\n  function  callExternal(address funcTypesAddr, string str) external returns (uint){\n      FuncTypes funcTypes = FuncTypes(funcTypesAddr);\n      return funcTypes.indirectCall(str);\n  }\n\n  function  callAsTransaction(address funcTypesAddr, string str) external returns (uint){\n      bool flag = funcTypesAddr.call(bytes4(sha3(\"indirectCall(string)\")), str);\n      if(!flag) /**throw;*Deprecated*/ revert();\n\n      return 0;\n  }  \n}\n\n",
  "sourcePath": "/home/vagrant/SravzNew/Sravz.BlockChain/contracts/FuncTypesCaller.sol",
  "compiler": {
    "name": "solc",
    "version": "0.4.18+commit.9cf6e910.Emscripten.clang"
  },
  "schemaVersion": "1.0.1",
  "updatedAt": "2017-12-20T03:21:17.961Z"
}