{
  "contractName": "FuncTypes",
  "abi": [
    {
      "constant": false,
      "inputs": [
        {
          "name": "data",
          "type": "string"
        }
      ],
      "name": "indirectCall",
      "outputs": [
        {
          "name": "len",
          "type": "uint256"
        }
      ],
      "payable": false,
      "stateMutability": "nonpayable",
      "type": "function"
    },
    {
      "inputs": [],
      "payable": false,
      "stateMutability": "nonpayable",
      "type": "constructor"
    }
  ],
  "bytecode": "0x6060604052341561000f57600080fd5b61004a640100000000026100e117600160006101000a81548167ffffffffffffffff021916908367ffffffffffffffff160217905550610055565b600081519050919050565b610118806100646000396000f300606060405260043610603f576000357c0100000000000000000000000000000000000000000000000000000000900463ffffffff1680630d35b473146044575b600080fd5b3415604e57600080fd5b606d600480803590602001908201803590602001919091929050506083565b6040518082815260200191505060405180910390f35b600060d983838080601f016020809104026020016040519081016040528093929190818152602001838380828437820191505050505050600160009054906101000a900467ffffffffffffffff1663ffffffff16565b905092915050565b6000815190509190505600a165627a7a72305820da4de2c9c2de03aeb008885fb3dfde906eec7ec2a759c1765a30118ca65959c80029",
  "source": "pragma solidity ^0.4.4;\n\n/**\n * Demonstrates use of the function type variables\n **/\ncontract FuncTypes {\n\n    bytes  private secret;\n\n    // Reference to an internal function\n    function(string memory) internal returns(uint) lengthFunctionVar;\n\n    // Constructor\n    function  FuncTypes(){\n      lengthFunctionVar = actualLengthFunction;\n    }\n\n    // This method should NOT be available for calls from OUTSIDE the contract context\n    function  actualLengthFunction(string memory str)  private returns (uint len){\n      len = bytes(str).length;\n    }\n\n    // For demo purposes\n    // Calls using the state variable reference rather than actual function\n    function  indirectCall(string  data) external returns(uint len){\n      len = lengthFunctionVar(data);\n    }\n}",
  "sourcePath": "/home/vagrant/SravzNew/Sravz.BlockChain/contracts/FuncTypes.sol",
  "compiler": {
    "name": "solc",
    "version": "0.4.18+commit.9cf6e910.Emscripten.clang"
  },
  "schemaVersion": "1.0.1",
  "updatedAt": "2017-12-20T03:21:17.950Z"
}