{
  "contractName": "Funcs",
  "abi": [
    {
      "constant": false,
      "inputs": [],
      "name": "getOwnerName",
      "outputs": [
        {
          "name": "",
          "type": "string"
        }
      ],
      "payable": false,
      "stateMutability": "nonpayable",
      "type": "function"
    },
    {
      "constant": false,
      "inputs": [],
      "name": "multiReturnCaller",
      "outputs": [
        {
          "name": "n",
          "type": "string"
        },
        {
          "name": "a",
          "type": "uint8"
        }
      ],
      "payable": false,
      "stateMutability": "nonpayable",
      "type": "function"
    },
    {
      "constant": false,
      "inputs": [],
      "name": "getOwnerAge",
      "outputs": [
        {
          "name": "age",
          "type": "uint8"
        }
      ],
      "payable": false,
      "stateMutability": "nonpayable",
      "type": "function"
    },
    {
      "constant": false,
      "inputs": [
        {
          "name": "name",
          "type": "string"
        },
        {
          "name": "age",
          "type": "uint8"
        }
      ],
      "name": "setOwnerInfo",
      "outputs": [],
      "payable": false,
      "stateMutability": "nonpayable",
      "type": "function"
    },
    {
      "constant": false,
      "inputs": [],
      "name": "getOwnerInfo",
      "outputs": [
        {
          "name": "name",
          "type": "string"
        },
        {
          "name": "age",
          "type": "uint8"
        }
      ],
      "payable": false,
      "stateMutability": "nonpayable",
      "type": "function"
    },
    {
      "inputs": [
        {
          "name": "name",
          "type": "string"
        },
        {
          "name": "age",
          "type": "uint8"
        }
      ],
      "payable": false,
      "stateMutability": "nonpayable",
      "type": "constructor"
    }
  ],
  "bytecode": "0x6060604052341561000f57600080fd5b6040516106ae3803806106ae83398101604052808051820191906020018051906020019091905050816000908051906020019061004d929190610070565b5080600160006101000a81548160ff021916908360ff1602179055505050610115565b828054600181600116156101000203166002900490600052602060002090601f016020900481019282601f106100b157805160ff19168380011785556100df565b828001600101855582156100df579182015b828111156100de5782518255916020019190600101906100c3565b5b5090506100ec91906100f0565b5090565b61011291905b8082111561010e5760008160009055506001016100f6565b5090565b90565b61058a806101246000396000f30060606040526004361061006d576000357c0100000000000000000000000000000000000000000000000000000000900463ffffffff168063145ef6e914610072578063ac3ce43214610100578063badbcfe81461019b578063d5f7c53b146101ca578063facf832314610233575b600080fd5b341561007d57600080fd5b6100856102ce565b6040518080602001828103825283818151815260200191508051906020019080838360005b838110156100c55780820151818401526020810190506100aa565b50505050905090810190601f1680156100f25780820380516001836020036101000a031916815260200191505b509250505060405180910390f35b341561010b57600080fd5b610113610376565b60405180806020018360ff1660ff168152602001828103825284818151815260200191508051906020019080838360005b8381101561015f578082015181840152602081019050610144565b50505050905090810190601f16801561018c5780820380516001836020036101000a031916815260200191505b50935050505060405180910390f35b34156101a657600080fd5b6101ae61039c565b604051808260ff1660ff16815260200191505060405180910390f35b34156101d557600080fd5b610231600480803590602001908201803590602001908080601f0160208091040260200160405190810160405280939291908181526020018383808284378201915050505050509190803560ff169060200190919050506103b3565b005b341561023e57600080fd5b6102466103e9565b60405180806020018360ff1660ff168152602001828103825284818151815260200191508051906020019080838360005b83811015610292578082015181840152602081019050610277565b50505050905090810190601f1680156102bf5780820380516001836020036101000a031916815260200191505b50935050505060405180910390f35b6102d66104a5565b60008054600181600116156101000203166002900480601f01602080910402602001604051908101604052809291908181526020018280546001816001161561010002031660029004801561036c5780601f106103415761010080835404028352916020019161036c565b820191906000526020600020905b81548152906001019060200180831161034f57829003601f168201915b5050505050905090565b61037e6104a5565b60006103886104a5565b60006103926103e9565b9150915050509091565b6000600160009054906101000a900460ff16905090565b81600090805190602001906103c99291906104b9565b5080600160006101000a81548160ff021916908360ff1602179055505050565b6103f16104a5565b6000808054600181600116156101000203166002900480601f0160208091040260200160405190810160405280929190818152602001828054600181600116156101000203166002900480156104885780601f1061045d57610100808354040283529160200191610488565b820191906000526020600020905b81548152906001019060200180831161046b57829003601f168201915b50505050509150600160009054906101000a900460ff1690509091565b602060405190810160405280600081525090565b828054600181600116156101000203166002900490600052602060002090601f016020900481019282601f106104fa57805160ff1916838001178555610528565b82800160010185558215610528579182015b8281111561052757825182559160200191906001019061050c565b5b5090506105359190610539565b5090565b61055b91905b8082111561055757600081600090555060010161053f565b5090565b905600a165627a7a7230582086b9e667896f9f66889e9526e636abd9ecd7b1c3ca7f5bfc2b8777987096809a0029",
  "source": "pragma solidity ^0.4.4;\n\ncontract Funcs {\n\n  string  ownerName;\n  uint8   ownerAge;\n\n  // Constructor\n  function  Funcs(string name, uint8 age){\n    ownerName = name;\n    ownerAge = age;\n  }\n\n  // Sets the name\n  function  setOwnerInfo(string name, uint8 age){\n    ownerName = name;\n    ownerAge = age;\n  }\n\n  function secretFunction() private {\n    // Not available outside this contract\n  }\n\n  function  getOwnerInfo() returns (string name, uint8 age){\n    name = ownerName;\n    age = ownerAge;\n  }\n\n\n  // Shows that function overloading is supported\n  // Returns owner data only if age > greaterThan otherwise all 0s\n  // PS: Truffle framework seem to have issues with overloaded functions\n  //     Uncommenting this *may* give unexpected test results\n  // function  getOwnerInfo(uint8 greaterThan) returns (string name, uint8 age){\n  //   if(ownerAge > greaterThan){ \n  //     name = ownerName;\n  //     age = ownerAge;\n  //   }\n  // }\n\n\n  // Shows how multiple values are received from a function call\n  function  multiReturnCaller() returns (string n,uint8 a){\n    // Create a tuple\n    var (name, age) = getOwnerInfo();\n  }\n\n\n  // Get the name\n  function  getOwnerName() returns (string) {\n\n    return ownerName;\n  }\n\n  // Get the age\n  function  getOwnerAge() returns(uint8 age){\n    age = ownerAge;\n    //return ownerAge;\n  }\n\n}\n",
  "sourcePath": "/home/vagrant/SravzNew/Sravz.BlockChain/contracts/Funcs.sol",
  "compiler": {
    "name": "solc",
    "version": "0.4.18+commit.9cf6e910.Emscripten.clang"
  },
  "schemaVersion": "1.0.1",
  "updatedAt": "2017-12-20T03:21:17.956Z"
}