{
  "contractName": "Modifiers",
  "abi": [
    {
      "constant": false,
      "inputs": [],
      "name": "checkOwnership",
      "outputs": [
        {
          "name": "",
          "type": "bool"
        }
      ],
      "payable": false,
      "stateMutability": "nonpayable",
      "type": "function"
    },
    {
      "constant": true,
      "inputs": [],
      "name": "testMod",
      "outputs": [
        {
          "name": "",
          "type": "uint256"
        }
      ],
      "payable": false,
      "stateMutability": "view",
      "type": "function"
    },
    {
      "constant": false,
      "inputs": [],
      "name": "testModifiers",
      "outputs": [],
      "payable": false,
      "stateMutability": "nonpayable",
      "type": "function"
    },
    {
      "constant": false,
      "inputs": [],
      "name": "bidForOwnership",
      "outputs": [
        {
          "name": "",
          "type": "bool"
        }
      ],
      "payable": true,
      "stateMutability": "payable",
      "type": "function"
    },
    {
      "constant": true,
      "inputs": [],
      "name": "owner",
      "outputs": [
        {
          "name": "",
          "type": "address"
        }
      ],
      "payable": false,
      "stateMutability": "view",
      "type": "function"
    },
    {
      "constant": false,
      "inputs": [
        {
          "name": "newOwner",
          "type": "address"
        }
      ],
      "name": "transferOwnership",
      "outputs": [
        {
          "name": "",
          "type": "bool"
        }
      ],
      "payable": false,
      "stateMutability": "nonpayable",
      "type": "function"
    },
    {
      "inputs": [],
      "payable": false,
      "stateMutability": "nonpayable",
      "type": "constructor"
    }
  ],
  "bytecode": "0x60606040526000600355341561001457600080fd5b336000806101000a81548173ffffffffffffffffffffffffffffffffffffffff021916908373ffffffffffffffffffffffffffffffffffffffff160217905550610335806100636000396000f300606060405260043610610078576000357c0100000000000000000000000000000000000000000000000000000000900463ffffffff168063219a1d771461007d578063291b19f2146100aa5780635a043dcd146100d357806360ace1ec146100e85780638da5cb5b1461010a578063f2fde38b1461015f575b600080fd5b341561008857600080fd5b6100906101b0565b604051808215151515815260200191505060405180910390f35b34156100b557600080fd5b6100bd610207565b6040518082815260200191505060405180910390f35b34156100de57600080fd5b6100e661020d565b005b6100f0610221565b604051808215151515815260200191505060405180910390f35b341561011557600080fd5b61011d61023e565b604051808273ffffffffffffffffffffffffffffffffffffffff1673ffffffffffffffffffffffffffffffffffffffff16815260200191505060405180910390f35b341561016a57600080fd5b610196600480803573ffffffffffffffffffffffffffffffffffffffff16906020019091905050610263565b604051808215151515815260200191505060405180910390f35b60008060009054906101000a900473ffffffffffffffffffffffffffffffffffffffff1673ffffffffffffffffffffffffffffffffffffffff163373ffffffffffffffffffffffffffffffffffffffff1614905090565b60035481565b600360008154809291906001019190505550565b6000606434101515610236576001905061023b565b600080fd5b90565b6000809054906101000a900473ffffffffffffffffffffffffffffffffffffffff1681565b60008060009054906101000a900473ffffffffffffffffffffffffffffffffffffffff1673ffffffffffffffffffffffffffffffffffffffff163373ffffffffffffffffffffffffffffffffffffffff1614156102ff57816000806101000a81548173ffffffffffffffffffffffffffffffffffffffff021916908373ffffffffffffffffffffffffffffffffffffffff160217905550610304565b600080fd5b9190505600a165627a7a72305820b4fc5353d8e687d5fb8db9e190bef2a95a418a2b497af376bd398ec009e19a0b0029",
  "source": "pragma solidity ^0.4.4;\n\n/**\n * Demonstrates the use of modifiers\n **/\ncontract Modifiers {\n  \n  address public owner;\n  // Minimum acceptable offer\n  uint  constant  minimumAccetableOffer = 100;\n  uint[]          lastBid;\n  address[]       lastBidder;\n\n  function  Modifiers(){\n    owner = msg.sender;\n  }\n\n  // Restricts execution by owner only\n  modifier  ownerOnly {\n    if(msg.sender == owner){\n      _;\n    } else {\n      /**throw;*Deprecated*/\n      revert();\n    }\n  }\n\n   modifier  minimumAcceptable(){\n    if(msg.value >= minimumAccetableOffer){\n     _;\n    } else {\n      /**throw;*Deprecated*/\n      revert();\n    }\n  }\n\n  // Checks if the caller is the owner\n  function  checkOwnership() returns(bool) {\n    return  (msg.sender == owner);\n  }\n\n  function  transferOwnership(address newOwner) ownerOnly returns(bool){\n    owner = newOwner;\n  }\n\n\n  function  bidForOwnership() payable minimumAcceptable returns(bool)  {\n    // Code the bid pushing\n    return true;\n  }\n\n  // Code for testing mutiple modifiers\n  uint  public testMod = 0;\n  modifier mod1(){\n    _;\n  }\n\n  modifier mod2(){\n    _;\n  }\n\n  function  testModifiers()  mod1  mod2{\n    testMod++;\n  }\n}\n",
  "sourcePath": "/home/vagrant/SravzNew/Sravz.BlockChain/contracts/Modifiers.sol",
  "compiler": {
    "name": "solc",
    "version": "0.4.18+commit.9cf6e910.Emscripten.clang"
  },
  "schemaVersion": "1.0.1",
  "updatedAt": "2017-12-20T03:21:17.982Z"
}