{
  "contractName": "MultiNumberBettingV3",
  "abi": [
    {
      "constant": true,
      "inputs": [],
      "name": "lastWinnerAt",
      "outputs": [
        {
          "name": "",
          "type": "uint256"
        }
      ],
      "payable": false,
      "stateMutability": "view",
      "type": "function"
    },
    {
      "constant": true,
      "inputs": [],
      "name": "hoursSinceLastWinning",
      "outputs": [
        {
          "name": "",
          "type": "uint256"
        }
      ],
      "payable": false,
      "stateMutability": "view",
      "type": "function"
    },
    {
      "constant": true,
      "inputs": [],
      "name": "getWinnerName",
      "outputs": [
        {
          "name": "",
          "type": "string"
        }
      ],
      "payable": false,
      "stateMutability": "view",
      "type": "function"
    },
    {
      "constant": true,
      "inputs": [],
      "name": "minutesSinceLastWinning",
      "outputs": [
        {
          "name": "",
          "type": "uint256"
        }
      ],
      "payable": false,
      "stateMutability": "view",
      "type": "function"
    },
    {
      "constant": true,
      "inputs": [],
      "name": "loserCount",
      "outputs": [
        {
          "name": "",
          "type": "uint256"
        }
      ],
      "payable": false,
      "stateMutability": "view",
      "type": "function"
    },
    {
      "constant": false,
      "inputs": [
        {
          "name": "guess",
          "type": "uint256"
        },
        {
          "name": "name",
          "type": "string"
        },
        {
          "name": "caller",
          "type": "address"
        }
      ],
      "name": "guess",
      "outputs": [
        {
          "name": "",
          "type": "bool"
        }
      ],
      "payable": false,
      "stateMutability": "nonpayable",
      "type": "function"
    },
    {
      "constant": true,
      "inputs": [],
      "name": "daysSinceLastWinning",
      "outputs": [
        {
          "name": "",
          "type": "uint256"
        }
      ],
      "payable": false,
      "stateMutability": "view",
      "type": "function"
    },
    {
      "constant": true,
      "inputs": [],
      "name": "totalGuesses",
      "outputs": [
        {
          "name": "",
          "type": "uint256"
        }
      ],
      "payable": false,
      "stateMutability": "view",
      "type": "function"
    },
    {
      "constant": true,
      "inputs": [],
      "name": "winnerCount",
      "outputs": [
        {
          "name": "",
          "type": "uint256"
        }
      ],
      "payable": false,
      "stateMutability": "view",
      "type": "function"
    },
    {
      "constant": true,
      "inputs": [],
      "name": "winner",
      "outputs": [
        {
          "name": "",
          "type": "address"
        }
      ],
      "payable": false,
      "stateMutability": "view",
      "type": "function"
    },
    {
      "inputs": [
        {
          "name": "num1",
          "type": "uint256"
        },
        {
          "name": "num2",
          "type": "uint256"
        },
        {
          "name": "num3",
          "type": "uint256"
        }
      ],
      "payable": false,
      "stateMutability": "nonpayable",
      "type": "constructor"
    }
  ],
  "bytecode": "0x6060604052341561000f57600080fd5b6040516060806108fb833981016040528080519060200190919080519060200190919080519060200190919050506001831015801561004f5750600a8311155b80156100695750600182101580156100685750600a8211155b5b80156100835750600181101580156100825750600a8111155b5b15610104576002805480600101828161009c919061010c565b916000526020600020900160008590919091505550600280548060010182816100c5919061010c565b916000526020600020900160008490919091505550600280548060010182816100ee919061010c565b9160005260206000209001600083909190915055505b50505061015d565b815481835581811511610133578183600052602060002091820191016101329190610138565b5b505050565b61015a91905b8082111561015657600081600090555060010161013e565b5090565b90565b61078f8061016c6000396000f3006060604052600436106100a4576000357c0100000000000000000000000000000000000000000000000000000000900463ffffffff1680630f8df5b4146100a957806315153cdc146100d25780632bfda515146100fb57806348992bfa14610189578063524799a7146101b2578063602d2a63146101db5780636d48a043146102785780638ef28249146102a1578063caa02e08146102ca578063dfbf53ae146102f3575b600080fd5b34156100b457600080fd5b6100bc610348565b6040518082815260200191505060405180910390f35b34156100dd57600080fd5b6100e561034e565b6040518082815260200191505060405180910390f35b341561010657600080fd5b61010e61035e565b6040518080602001828103825283818151815260200191508051906020019080838360005b8381101561014e578082015181840152602081019050610133565b50505050905090810190601f16801561017b5780820380516001836020036101000a031916815260200191505b509250505060405180910390f35b341561019457600080fd5b61019c61053e565b6040518082815260200191505060405180910390f35b34156101bd57600080fd5b6101c561054d565b6040518082815260200191505060405180910390f35b34156101e657600080fd5b61025e600480803590602001909190803590602001908201803590602001908080601f0160208091040260200160405190810160405280939291908181526020018383808284378201915050505050509190803573ffffffffffffffffffffffffffffffffffffffff16906020019091905050610553565b604051808215151515815260200191505060405180910390f35b341561028357600080fd5b61028b61064c565b6040518082815260200191505060405180910390f35b34156102ac57600080fd5b6102b461065d565b6040518082815260200191505060405180910390f35b34156102d557600080fd5b6102dd61066a565b6040518082815260200191505060405180910390f35b34156102fe57600080fd5b610306610670565b604051808273ffffffffffffffffffffffffffffffffffffffff1673ffffffffffffffffffffffffffffffffffffffff16815260200191505060405180910390f35b60045481565b6000610e10600454420302905090565b610366610696565b61036e6106aa565b6103766106aa565b600060038054600181600116156101000203166002900480601f01602080910402602001604051908101604052809291908181526020018280546001816001161561010002031660029004801561040e5780601f106103e35761010080835404028352916020019161040e565b820191906000526020600020905b8154815290600101906020018083116103f157829003601f168201915b5050505050925060008351141561045c576040805190810160405280600381526020017f2a2a2a00000000000000000000000000000000000000000000000000000000008152509350610538565b600360405180591061046b5750595b9080825280601f01601f19166020018201604052509150600090505b600381101561053457828181518110151561049e57fe5b9060200101517f010000000000000000000000000000000000000000000000000000000000000090047f01000000000000000000000000000000000000000000000000000000000000000282828151811015156104f757fe5b9060200101907effffffffffffffffffffffffffffffffffffffffffffffffffffffffffffff1916908160001a9053508080600101915050610487565b8193505b50505090565b6000603c600454420302905090565b60005481565b600080600085101580156105685750600a8511155b151561057357600080fd5b600090505b60028054905081101561062e578460028281548110151561059557fe5b90600052602060002090015414156106215760016000815480929190600101919050555083600390805190602001906105cf9291906106be565b504260048190555082600560006101000a81548173ffffffffffffffffffffffffffffffffffffffff021916908373ffffffffffffffffffffffffffffffffffffffff16021790555060019150610644565b8080600101915050610578565b6000808154809291906001019190505550600091505b509392505050565b600062015180600454420302905090565b6000805460015401905090565b60015481565b600560009054906101000a900473ffffffffffffffffffffffffffffffffffffffff1681565b602060405190810160405280600081525090565b602060405190810160405280600081525090565b828054600181600116156101000203166002900490600052602060002090601f016020900481019282601f106106ff57805160ff191683800117855561072d565b8280016001018555821561072d579182015b8281111561072c578251825591602001919060010190610711565b5b50905061073a919061073e565b5090565b61076091905b8082111561075c576000816000905550600101610744565b5090565b905600a165627a7a7230582001ae379f09195ea1476c8787900ba630815af036d7a5ff4f25b4dfd209c4c22f0029",
  "source": "pragma solidity ^0.4.0;\r\n\r\ncontract MultiNumberBettingV3 {\r\n  uint public loserCount;\r\n  uint public winnerCount;\r\n  uint[] numArray;\r\n  string lastWinnerName;\r\n  uint public lastWinnerAt;\r\n  address public winner;\r\n  \r\n function MultiNumberBettingV3(uint num1, uint num2, uint num3) {\r\n    if ((num1 >= 1 && num1 <=10 ) && \r\n    \t(num2 >= 1 && num2 <=10) && \r\n    \t(num3 >= 1 && num3 <=10))\r\n    {\r\n    \tnumArray.push(num1);\r\n    \tnumArray.push(num2);\r\n    \tnumArray.push(num3);\r\n    \t\r\n    } \r\n  }\r\n  \r\n  function guess(uint guess, string name, address caller) returns(bool)\r\n  {\r\n        require(guess >=0 && guess <= 10);\r\n  \t\t\r\n        for (uint i = 0; i < numArray.length; i++)\r\n        {\r\n        \tif (numArray[i] == guess)  \r\n        \t{\r\n        \t\twinnerCount++;\r\n        \t\tlastWinnerName = name;\r\n        \t\tlastWinnerAt = now;\r\n        \t\twinner = caller;\r\n        \t\treturn true;\r\n        \t}\r\n        }\r\n\t\tloserCount++;        \r\n        return false;\r\n  }\r\n  \r\n  function totalGuesses() constant returns (uint)\r\n  {\r\n  \treturn (winnerCount + loserCount);\r\n  }\r\n  \r\n  function getWinnerName() constant returns (string)\r\n  {\r\n    bytes memory _lastName = bytes(lastWinnerName);\r\n    if (_lastName.length == 0) {\r\n        return '***';\r\n    }\r\n    else\r\n    {\r\n\t    bytes memory bytesStringTrimmed = new bytes(3);\r\n\t    for (uint j = 0; j < 3; j++) {\r\n\t        bytesStringTrimmed[j] = _lastName[j];\r\n\t    }\r\n\t    return string(bytesStringTrimmed);    \t\r\n    }  \t\r\n  }      \r\n  \r\n  function daysSinceLastWinning() constant returns (uint)\r\n  {\r\n  \t\treturn ( (now - lastWinnerAt) * 1 days );\t\r\n  }\r\n  \r\n  function hoursSinceLastWinning() constant returns (uint)\r\n  {\r\n  \t\treturn ( (now - lastWinnerAt) * 1 hours );\r\n  }\r\n\r\n  function minutesSinceLastWinning() constant returns (uint)\r\n  {\r\n  \t\treturn ( (now - lastWinnerAt) * 1 minutes);\r\n  }\r\n \r\n}",
  "sourcePath": "/home/vagrant/SravzNew/Sravz.BlockChain/contracts/MultiNumberBettingV3.sol",
  "compiler": {
    "name": "solc",
    "version": "0.4.18+commit.9cf6e910.Emscripten.clang"
  },
  "schemaVersion": "1.0.1",
  "updatedAt": "2017-12-20T03:21:18.154Z"
}