{
  "contractName": "MultiNumberBettingV5",
  "abi": [
    {
      "constant": false,
      "inputs": [],
      "name": "getBalance",
      "outputs": [
        {
          "name": "",
          "type": "uint256"
        }
      ],
      "payable": false,
      "stateMutability": "nonpayable",
      "type": "function"
    },
    {
      "constant": true,
      "inputs": [],
      "name": "hoursSinceLastWinning",
      "outputs": [
        {
          "name": "",
          "type": "uint256"
        }
      ],
      "payable": false,
      "stateMutability": "view",
      "type": "function"
    },
    {
      "constant": true,
      "inputs": [],
      "name": "minutesSinceLastWinning",
      "outputs": [
        {
          "name": "",
          "type": "uint256"
        }
      ],
      "payable": false,
      "stateMutability": "view",
      "type": "function"
    },
    {
      "constant": true,
      "inputs": [
        {
          "name": "_address",
          "type": "address"
        }
      ],
      "name": "loserCount",
      "outputs": [
        {
          "components": [
            {
              "name": "name",
              "type": "string"
            },
            {
              "name": "_address",
              "type": "address"
            },
            {
              "name": "guess",
              "type": "uint256"
            },
            {
              "name": "guessedAt",
              "type": "uint256"
            },
            {
              "name": "ethersReceived",
              "type": "uint256"
            }
          ],
          "name": "",
          "type": "uint256"
        }
      ],
      "payable": false,
      "stateMutability": "view",
      "type": "function"
    },
    {
      "constant": false,
      "inputs": [
        {
          "name": "_address",
          "type": "address"
        }
      ],
      "name": "checkWinning",
      "outputs": [
        {
          "name": "",
          "type": "tuple",
          "components": [
            {
              "name": "name",
              "type": "string"
            },
            {
              "name": "_address",
              "type": "address"
            },
            {
              "name": "guess",
              "type": "uint256"
            },
            {
              "name": "guessedAt",
              "type": "uint256"
            },
            {
              "name": "ethersReceived",
              "type": "uint256"
            }
          ]
        }
      ],
      "payable": false,
      "stateMutability": "nonpayable",
      "type": "function"
    },
    {
      "constant": true,
      "inputs": [
        {
          "name": "guess",
          "type": "uint256"
        },
        {
          "name": "name",
          "type": "string"
        }
      ],
      "name": "daysSinceLastWinning",
      "outputs": [
        {
          "name": "",
          "type": "uint256"
        }
      ],
      "payable": false,
      "stateMutability": "view",
      "type": "function"
    },
    {
      "constant": false,
      "inputs": [
        {
          "name": "guess",
          "type": "uint256"
        },
        {
          "name": "name",
          "type": "string"
        }
      ],
      "name": "guess",
      "outputs": [
        {
          "name": "",
          "type": "bool"
        }
      ],
      "payable": true,
      "stateMutability": "payable",
      "type": "function"
    },
    {
      "constant": true,
      "inputs": [],
      "name": "totalGuesses",
      "outputs": [
        {
          "name": "",
          "type": "uint256"
        },
        {
          "name": "name",
          "type": "string"
        },
        {
          "name": "guess",
          "type": "uint256"
        },
        {
          "name": "guessedAt",
          "type": "uint256"
        },
        {
          "name": "ethersReceived",
          "type": "uint256"
        }
      ],
      "payable": false,
      "stateMutability": "view",
      "type": "function"
    },
    {
      "constant": false,
      "inputs": [],
      "name": "getLastWinnerInfo1",
      "outputs": [
        {
          "name": "winnerAddress",
          "type": "address"
        },
        {
          "name": "name",
          "type": "string"
        },
        {
          "name": "guess",
          "type": "uint256"
        },
        {
          "name": "guessedAt",
          "type": "uint256"
        },
        {
          "name": "ethersReceived",
          "type": "uint256"
        }
      ],
      "payable": false,
      "stateMutability": "nonpayable",
      "type": "function"
    },
    {
      "constant": true,
      "inputs": [],
      "name": "winnerCount",
      "outputs": [
        {
          "components": [
            {
              "name": "name",
              "type": "string"
            },
            {
              "name": "_address",
              "type": "address"
            },
            {
              "name": "guess",
              "type": "uint256"
            },
            {
              "name": "guessedAt",
              "type": "uint256"
            },
            {
              "name": "ethersReceived",
              "type": "uint256"
            }
          ],
          "name": "",
          "type": "uint256"
        }
      ],
      "payable": false,
      "stateMutability": "view",
      "type": "function"
    },
    {
      "inputs": [
        {
          "name": "num1",
          "type": "uint256"
        },
        {
          "name": "num2",
          "type": "uint256"
        },
        {
          "name": "num3",
          "type": "uint256"
        }
      ],
      "payable": false,
      "stateMutability": "nonpayable",
      "type": "function",
      "constant": false,
      "name": "getLastWinnerInfo",
      "outputs": [
        {
          "components": [
            {
              "name": "name",
              "type": "string"
            },
            {
              "name": "_address",
              "type": "address"
            },
            {
              "name": "guess",
              "type": "uint256"
            },
            {
              "name": "guessedAt",
              "type": "uint256"
            },
            {
              "name": "ethersReceived",
              "type": "uint256"
            }
          ],
          "name": "",
          "type": "tuple"
        }
      ]
    },
    {
      "inputs": [
        {
          "name": "num1",
          "type": "uint256"
        },
        {
          "name": "num2",
          "type": "uint256"
        },
        {
          "name": "num3",
          "type": "uint256"
        }
      ],
      "payable": false,
      "stateMutability": "nonpayable",
      "type": "constructor"
    }
  ],
  "bytecode": "0x606060405264e8d4a5100060005534156200001957600080fd5b60405160608062000ec083398101604052808051906020019091908051906020019091908051906020019091905050600183101580156200005b5750600a8311155b801562000077575060018210158015620000765750600a8211155b5b801562000093575060018110158015620000925750600a8111155b5b156200011b5760068054806001018281620000af919062000124565b91600052602060002090016000859091909150555060068054806001018281620000da919062000124565b9160005260206000209001600084909190915055506006805480600101828162000105919062000124565b9160005260206000209001600083909190915055505b5050506200017b565b8154818355818115116200014e578183600052602060002091820191016200014d919062000153565b5b505050565b6200017891905b80821115620001745760008160009055506001016200015a565b5090565b90565b610d35806200018b6000396000f3006060604052600436106100af576000357c0100000000000000000000000000000000000000000000000000000000900463ffffffff16806312065fe0146100b457806315153cdc146100dd57806348992bfa14610106578063524799a71461012f5780635249c231146101585780636d48a043146101a5578063773f5edc146101ce5780638ef2824914610241578063a2e424751461026a578063caa02e0814610340578063ee040eb914610369575b600080fd5b34156100bf57600080fd5b6100c7610392565b6040518082815260200191505060405180910390f35b34156100e857600080fd5b6100f06103b1565b6040518082815260200191505060405180910390f35b341561011157600080fd5b6101196103c1565b6040518082815260200191505060405180910390f35b341561013a57600080fd5b6101426103d0565b6040518082815260200191505060405180910390f35b341561016357600080fd5b61018f600480803573ffffffffffffffffffffffffffffffffffffffff169060200190919050506103d6565b6040518082815260200191505060405180910390f35b34156101b057600080fd5b6101b8610546565b6040518082815260200191505060405180910390f35b610227600480803590602001909190803590602001908201803590602001908080601f01602080910402602001604051908101604052809392919081815260200183838082843782019150505050505091905050610557565b604051808215151515815260200191505060405180910390f35b341561024c57600080fd5b61025461073b565b6040518082815260200191505060405180910390f35b341561027557600080fd5b61027d610749565b604051808673ffffffffffffffffffffffffffffffffffffffff1673ffffffffffffffffffffffffffffffffffffffff16815260200180602001858152602001848152602001838152602001828103825286818151815260200191508051906020019080838360005b838110156103015780820151818401526020810190506102e6565b50505050905090810190601f16801561032e5780820380516001836020036101000a031916815260200191505b50965050505050505060405180910390f35b341561034b57600080fd5b610353610a5a565b6040518082815260200191505060405180910390f35b341561037457600080fd5b61037c610a60565b6040518082815260200191505060405180910390f35b60003073ffffffffffffffffffffffffffffffffffffffff1631905090565b6000610e10600554420302905090565b6000603c600554420302905090565b60035481565b6103de610bf0565b600160008373ffffffffffffffffffffffffffffffffffffffff1673ffffffffffffffffffffffffffffffffffffffff16815260200190815260200160002060a06040519081016040529081600082018054600181600116156101000203166002900480601f0160208091040260200160405190810160405280929190818152602001828054600181600116156101000203166002900480156104c25780601f10610497576101008083540402835291602001916104c2565b820191906000526020600020905b8154815290600101906020018083116104a557829003601f168201915b505050505081526020016001820160009054906101000a900473ffffffffffffffffffffffffffffffffffffffff1673ffffffffffffffffffffffffffffffffffffffff1673ffffffffffffffffffffffffffffffffffffffff16815260200160028201548152602001600382015481526020016004820154815250509050919050565b600062015180600554420302905090565b6000806000841015801561056c5750600a8411155b151561057757600080fd5b600090505b60068054905081101561071d578360068281548110151561059957fe5b90600052602060002090015414156107105760046000815480929190600101919050555060a0604051908101604052808481526020013373ffffffffffffffffffffffffffffffffffffffff16815260200185815260200142815260200134815250600160003373ffffffffffffffffffffffffffffffffffffffff1673ffffffffffffffffffffffffffffffffffffffff1681526020019081526020016000206000820151816000019080519060200190610656929190610c3c565b5060208201518160010160006101000a81548173ffffffffffffffffffffffffffffffffffffffff021916908373ffffffffffffffffffffffffffffffffffffffff16021790555060408201518160020155606082015181600301556080820151816004015590505033600260006101000a81548173ffffffffffffffffffffffffffffffffffffffff021916908373ffffffffffffffffffffffffffffffffffffffff1602179055504260058190555060019150610734565b808060010191505061057c565b600360008154809291906001019190505550600091505b5092915050565b600060035460045401905090565b6000610753610cbc565b600080600060016000600260009054906101000a900473ffffffffffffffffffffffffffffffffffffffff1673ffffffffffffffffffffffffffffffffffffffff1673ffffffffffffffffffffffffffffffffffffffff16815260200190815260200160002060010160009054906101000a900473ffffffffffffffffffffffffffffffffffffffff16945060016000600260009054906101000a900473ffffffffffffffffffffffffffffffffffffffff1673ffffffffffffffffffffffffffffffffffffffff1673ffffffffffffffffffffffffffffffffffffffff1681526020019081526020016000206000018054600181600116156101000203166002900480601f0160208091040260200160405190810160405280929190818152602001828054600181600116156101000203166002900480156108d75780601f106108ac576101008083540402835291602001916108d7565b820191906000526020600020905b8154815290600101906020018083116108ba57829003601f168201915b5050505050935060016000600260009054906101000a900473ffffffffffffffffffffffffffffffffffffffff1673ffffffffffffffffffffffffffffffffffffffff1673ffffffffffffffffffffffffffffffffffffffff16815260200190815260200160002060020154925060016000600260009054906101000a900473ffffffffffffffffffffffffffffffffffffffff1673ffffffffffffffffffffffffffffffffffffffff1673ffffffffffffffffffffffffffffffffffffffff16815260200190815260200160002060030154915060016000600260009054906101000a900473ffffffffffffffffffffffffffffffffffffffff1673ffffffffffffffffffffffffffffffffffffffff1673ffffffffffffffffffffffffffffffffffffffff1681526020019081526020016000206004015490508473ffffffffffffffffffffffffffffffffffffffff166108fc829081150290604051600060405180830381858888f193505050501515610a5357600080fd5b9091929394565b60045481565b610a68610bf0565b60016000600260009054906101000a900473ffffffffffffffffffffffffffffffffffffffff1673ffffffffffffffffffffffffffffffffffffffff1673ffffffffffffffffffffffffffffffffffffffff16815260200190815260200160002060a06040519081016040529081600082018054600181600116156101000203166002900480601f016020809104026020016040519081016040528092919081815260200182805460018160011615610100020316600290048015610b6e5780601f10610b4357610100808354040283529160200191610b6e565b820191906000526020600020905b815481529060010190602001808311610b5157829003601f168201915b505050505081526020016001820160009054906101000a900473ffffffffffffffffffffffffffffffffffffffff1673ffffffffffffffffffffffffffffffffffffffff1673ffffffffffffffffffffffffffffffffffffffff1681526020016002820154815260200160038201548152602001600482015481525050905090565b60a060405190810160405280610c04610cd0565b8152602001600073ffffffffffffffffffffffffffffffffffffffff1681526020016000815260200160008152602001600081525090565b828054600181600116156101000203166002900490600052602060002090601f016020900481019282601f10610c7d57805160ff1916838001178555610cab565b82800160010185558215610cab579182015b82811115610caa578251825591602001919060010190610c8f565b5b509050610cb89190610ce4565b5090565b602060405190810160405280600081525090565b602060405190810160405280600081525090565b610d0691905b80821115610d02576000816000905550600101610cea565b5090565b905600a165627a7a72305820bf5b62aff95196a390c91d64f013e4ddaccab73213861b755f92326f8df210f10029",
  "source": "pragma solidity ^0.4.0;\r\n\r\nimport \"./MultiNumberBettingAbstractV1.sol\";\r\n\r\ncontract MultiNumberBettingV5 is MultiNumberBettingAbstractV1 { \r\n  \r\n  mapping (address => Winner) Winners;\r\n  address lastWinnerAddress;  \r\n  uint public loserCount;\r\n  uint public winnerCount;\r\n  uint lastWinnerAt;\r\n  uint[] numArray;\r\n  \r\n function MultiNumberBettingV5(uint num1, uint num2, uint num3) {\r\n    if ((num1 >= 1 && num1 <=10 ) && \r\n    \t(num2 >= 1 && num2 <=10) && \r\n    \t(num3 >= 1 && num3 <=10))\r\n    {\r\n    \tnumArray.push(num1);\r\n    \tnumArray.push(num2);\r\n    \tnumArray.push(num3);\r\n    \t\r\n    } \r\n  }\r\n  \r\n  function guess(uint guess, string name) payable returns(bool)\r\n  {\r\n        require(guess >=0 && guess <= 10);\r\n  \t\t\r\n        for (uint i = 0; i < numArray.length; i++)\r\n        {\r\n        \tif (numArray[i] == guess)  \r\n        \t{\r\n        \t\twinnerCount++;\r\n        \t\tWinners[msg.sender] = Winner(name, msg.sender, guess, now, msg.value);\r\n        \t\tlastWinnerAddress = msg.sender;\r\n        \t\tlastWinnerAt = now;\r\n        \t\treturn true;\r\n        \t}\r\n        }\r\n\t\tloserCount++;        \r\n        return false;\r\n  }\r\n  \r\n  function totalGuesses() constant returns (uint)\r\n  {\r\n  \treturn (winnerCount + loserCount);\r\n  }\r\n\r\n  /*  \r\n  function getWinnerName() constant returns (string)\r\n  {\r\n    bytes memory _lastName = bytes(lastWinnerName);\r\n    if (_lastName.length == 0) {\r\n        return '***';\r\n    }\r\n    else\r\n    {\r\n\t    bytes memory bytesStringTrimmed = new bytes(3);\r\n\t    for (uint j = 0; j < 3; j++) {\r\n\t        bytesStringTrimmed[j] = _lastName[j];\r\n\t    }\r\n\t    return string(bytesStringTrimmed);    \t\r\n    }  \t\r\n  }      \r\n  */\r\n  \r\n  function getLastWinnerInfo() returns (Winner)\r\n  {\r\n\treturn Winners[lastWinnerAddress];  \t\r\n  }\r\n  \r\n  \r\n  function getLastWinnerInfo1() returns (address winnerAddress,\r\n                                         string  name,\r\n                                         uint    guess,\r\n                                         uint    guessedAt,\r\n                                         uint    ethersReceived){\r\n    winnerAddress = Winners[lastWinnerAddress]._address;\r\n    name =  Winners[lastWinnerAddress].name;\r\n    guess = Winners[lastWinnerAddress].guess;\r\n    guessedAt = Winners[lastWinnerAddress].guessedAt;\r\n    ethersReceived = Winners[lastWinnerAddress].ethersReceived;\r\n    winnerAddress.transfer(ethersReceived);\r\n  }\r\n  \r\n    \r\n  function checkWinning(address _address) returns(Winner)\r\n  {\r\n  \t return Winners[_address];\r\n  }  \r\n  \r\n  function daysSinceLastWinning() constant returns (uint)\r\n  {\r\n  \t\treturn ( (now - lastWinnerAt) * 1 days );\t\r\n  }\r\n  \r\n  function hoursSinceLastWinning() constant returns (uint)\r\n  {\r\n  \t\treturn ( (now - lastWinnerAt) * 1 hours );\r\n  }\r\n\r\n  function minutesSinceLastWinning() constant returns (uint)\r\n  {\r\n  \t\treturn ( (now - lastWinnerAt) * 1 minutes);\r\n  }\r\n  \r\n  function getBalance() returns (uint) {\r\n        return this.balance;\r\n  }\r\n \r\n}\r\n",
  "sourcePath": "/home/vagrant/SravzNew/Sravz.BlockChain/contracts/MultiNumberBettingV5.sol",
  "compiler": {
    "name": "solc",
    "version": "0.4.18+commit.9cf6e910.Emscripten.clang"
  },
  "schemaVersion": "1.0.1",
  "updatedAt": "2017-12-20T03:21:18.133Z"
}