{
  "contractName": "MultiNumberBettingV1",
  "abi": [
    {
      "constant": true,
      "inputs": [],
      "name": "totalGuesses",
      "outputs": [
        {
          "name": "",
          "type": "uint256"
        }
      ],
      "payable": false,
      "stateMutability": "view",
      "type": "function"
    },
    {
      "constant": false,
      "inputs": [
        {
          "name": "guess",
          "type": "uint256"
        }
      ],
      "name": "guess",
      "outputs": [
        {
          "name": "",
          "type": "bool"
        }
      ],
      "payable": false,
      "stateMutability": "nonpayable",
      "type": "function"
    },
    {
      "inputs": [
        {
          "name": "num1",
          "type": "uint256"
        },
        {
          "name": "num2",
          "type": "uint256"
        },
        {
          "name": "num3",
          "type": "uint256"
        }
      ],
      "payable": false,
      "stateMutability": "nonpayable",
      "type": "constructor"
    }
  ],
  "bytecode": "0x6060604052341561000f57600080fd5b6040516060806102d5833981016040528080519060200190919080519060200190919080519060200190919050506001831015801561004f5750600a8311155b80156100695750600182101580156100685750600a8211155b5b80156100835750600181101580156100825750600a8111155b5b15610104576002805480600101828161009c919061010c565b916000526020600020900160008590919091505550600280548060010182816100c5919061010c565b916000526020600020900160008490919091505550600280548060010182816100ee919061010c565b9160005260206000209001600083909190915055505b50505061015d565b815481835581811511610133578183600052602060002091820191016101329190610138565b5b505050565b61015a91905b8082111561015657600081600090555060010161013e565b5090565b90565b6101698061016c6000396000f30060606040526004361061004c576000357c0100000000000000000000000000000000000000000000000000000000900463ffffffff1680638ef28249146100515780639189fec11461007a575b600080fd5b341561005c57600080fd5b6100646100b5565b6040518082815260200191505060405180910390f35b341561008557600080fd5b61009b60048080359060200190919050506100c2565b604051808215151515815260200191505060405180910390f35b6000805460015401905090565b600080600090505b60028054905081101561012157826002828154811015156100e757fe5b90600052602060002090015414156101145760016000815480929190600101919050555060019150610137565b80806001019150506100ca565b6000808154809291906001019190505550600091505b509190505600a165627a7a723058205e5729654b35d981d4860d8c82ab7b7c5154ca2b36bc71b159cf90ca39d326430029",
  "source": "pragma solidity ^0.4.0;\r\n\r\ncontract MultiNumberBettingV1 {\r\n  uint loserCount;\r\n  uint winnerCount;\r\n  uint[] numArray;\r\n  \r\n  \r\n  // Constructor inokes the constructor of the base class\r\n  function MultiNumberBettingV1(uint num1, uint num2, uint num3) {\r\n    if ((num1 >= 1 && num1 <=10 ) && \r\n    \t(num2 >= 1 && num2 <=10) && \r\n    \t(num3 >= 1 && num3 <=10))\r\n    {\r\n    \tnumArray.push(num1);\r\n    \tnumArray.push(num2);\r\n    \tnumArray.push(num3);\r\n    \t\r\n    } \r\n  }\r\n  \r\n  function guess(uint guess) returns(bool)\r\n  {\r\n        for (uint i = 0; i < numArray.length; i++)\r\n        {\r\n        \tif (numArray[i] == guess)  \r\n        \t{\r\n        \t\twinnerCount++;\r\n        \t\treturn true;\r\n        \t}\r\n        }\r\n\t\tloserCount++;        \r\n        return false;\r\n  }\r\n  \r\n  function totalGuesses() constant returns (uint)\r\n  {\r\n  \treturn (winnerCount + loserCount);\r\n  }  \r\n  \r\n}",
  "sourcePath": "/home/vagrant/SravzNew/Sravz.BlockChain/contracts/MultiNumberBettingV1.sol",
  "compiler": {
    "name": "solc",
    "version": "0.4.18+commit.9cf6e910.Emscripten.clang"
  },
  "schemaVersion": "1.0.1",
  "updatedAt": "2017-12-20T03:21:18.046Z"
}