{
  "contractName": "MultiNumberBettingV2",
  "abi": [
    {
      "constant": true,
      "inputs": [],
      "name": "getWinnerName",
      "outputs": [
        {
          "name": "",
          "type": "string"
        }
      ],
      "payable": false,
      "stateMutability": "view",
      "type": "function"
    },
    {
      "constant": false,
      "inputs": [
        {
          "name": "guess",
          "type": "uint256"
        },
        {
          "name": "name",
          "type": "string"
        }
      ],
      "name": "guess",
      "outputs": [
        {
          "name": "",
          "type": "bool"
        }
      ],
      "payable": false,
      "stateMutability": "nonpayable",
      "type": "function"
    },
    {
      "constant": true,
      "inputs": [],
      "name": "totalGuesses",
      "outputs": [
        {
          "name": "",
          "type": "uint256"
        }
      ],
      "payable": false,
      "stateMutability": "view",
      "type": "function"
    },
    {
      "inputs": [
        {
          "name": "num1",
          "type": "uint256"
        },
        {
          "name": "num2",
          "type": "uint256"
        },
        {
          "name": "num3",
          "type": "uint256"
        }
      ],
      "payable": false,
      "stateMutability": "nonpayable",
      "type": "constructor"
    }
  ],
  "bytecode": "0x6060604052341561000f57600080fd5b604051606080610676833981016040528080519060200190919080519060200190919080519060200190919050506001831015801561004f5750600a8311155b80156100695750600182101580156100685750600a8211155b5b80156100835750600181101580156100825750600a8111155b5b15610104576002805480600101828161009c919061010c565b916000526020600020900160008590919091505550600280548060010182816100c5919061010c565b916000526020600020900160008490919091505550600280548060010182816100ee919061010c565b9160005260206000209001600083909190915055505b50505061015d565b815481835581811511610133578183600052602060002091820191016101329190610138565b5b505050565b61015a91905b8082111561015657600081600090555060010161013e565b5090565b90565b61050a8061016c6000396000f300606060405260043610610057576000357c0100000000000000000000000000000000000000000000000000000000900463ffffffff1680632bfda5151461005c578063773f5edc146100ea5780638ef2824914610168575b600080fd5b341561006757600080fd5b61006f610191565b6040518080602001828103825283818151815260200191508051906020019080838360005b838110156100af578082015181840152602081019050610094565b50505050905090810190601f1680156100dc5780820380516001836020036101000a031916815260200191505b509250505060405180910390f35b34156100f557600080fd5b61014e600480803590602001909190803590602001908201803590602001908080601f01602080910402602001604051908101604052809392919081815260200183838082843782019150505050505091905050610371565b604051808215151515815260200191505060405180910390f35b341561017357600080fd5b61017b610404565b6040518082815260200191505060405180910390f35b610199610411565b6101a1610425565b6101a9610425565b600060038054600181600116156101000203166002900480601f0160208091040260200160405190810160405280929190818152602001828054600181600116156101000203166002900480156102415780601f1061021657610100808354040283529160200191610241565b820191906000526020600020905b81548152906001019060200180831161022457829003601f168201915b5050505050925060008351141561028f576040805190810160405280600381526020017f2a2a2a0000000000000000000000000000000000000000000000000000000000815250935061036b565b600360405180591061029e5750595b9080825280601f01601f19166020018201604052509150600090505b60038110156103675782818151811015156102d157fe5b9060200101517f010000000000000000000000000000000000000000000000000000000000000090047f010000000000000000000000000000000000000000000000000000000000000002828281518110151561032a57fe5b9060200101907effffffffffffffffffffffffffffffffffffffffffffffffffffffffffffff1916908160001a90535080806001019150506102ba565b8193505b50505090565b600080600090505b6002805490508110156103e7578360028281548110151561039657fe5b90600052602060002090015414156103da5760016000815480929190600101919050555082600390805190602001906103d0929190610439565b50600191506103fd565b8080600101915050610379565b6000808154809291906001019190505550600091505b5092915050565b6000805460015401905090565b602060405190810160405280600081525090565b602060405190810160405280600081525090565b828054600181600116156101000203166002900490600052602060002090601f016020900481019282601f1061047a57805160ff19168380011785556104a8565b828001600101855582156104a8579182015b828111156104a757825182559160200191906001019061048c565b5b5090506104b591906104b9565b5090565b6104db91905b808211156104d75760008160009055506001016104bf565b5090565b905600a165627a7a72305820d0c67892a0be351af05e62617ac98d0d10cf61ead636fec76c5fa9472b2f49020029",
  "source": "pragma solidity ^0.4.0;\r\n\r\ncontract MultiNumberBettingV2 {\r\n  uint loserCount;\r\n  uint winnerCount;\r\n  uint[] numArray;\r\n  string lastWinnerName;\r\n  \r\n  \r\n function MultiNumberBettingV2(uint num1, uint num2, uint num3) {\r\n    if ((num1 >= 1 && num1 <=10 ) && \r\n    \t(num2 >= 1 && num2 <=10) && \r\n    \t(num3 >= 1 && num3 <=10))\r\n    {\r\n    \tnumArray.push(num1);\r\n    \tnumArray.push(num2);\r\n    \tnumArray.push(num3);\r\n    \t\r\n    } \r\n  }\r\n  \r\n  function guess(uint guess, string name) returns(bool)\r\n  {\r\n        for (uint i = 0; i < numArray.length; i++)\r\n        {\r\n        \tif (numArray[i] == guess)  \r\n        \t{\r\n        \t\twinnerCount++;\r\n        \t\tlastWinnerName = name;\r\n        \t\treturn true;\r\n        \t}\r\n        }\r\n\t\tloserCount++;        \r\n        return false;\r\n  }\r\n  \r\n  function totalGuesses() constant returns (uint)\r\n  {\r\n  \treturn (winnerCount + loserCount);\r\n  }\r\n  \r\n  function getWinnerName() constant returns (string)\r\n  {\r\n    bytes memory _lastName = bytes(lastWinnerName);\r\n    if (_lastName.length == 0) {\r\n        return '***';\r\n    }\r\n    else\r\n    {\r\n\t    bytes memory bytesStringTrimmed = new bytes(3);\r\n\t    for (uint j = 0; j < 3; j++) {\r\n\t        bytesStringTrimmed[j] = _lastName[j];\r\n\t    }\r\n\t    return string(bytesStringTrimmed);    \t\r\n    }  \t\r\n  }      \r\n  \r\n}",
  "sourcePath": "/home/vagrant/SravzNew/Sravz.BlockChain/contracts/MultiNumberBettingV2.sol",
  "compiler": {
    "name": "solc",
    "version": "0.4.18+commit.9cf6e910.Emscripten.clang"
  },
  "schemaVersion": "1.0.1",
  "updatedAt": "2017-12-20T03:21:18.091Z"
}