{
  "contractName": "MultiNumberBettingV4",
  "abi": [
    {
      "constant": true,
      "inputs": [],
      "name": "hoursSinceLastWinning",
      "outputs": [
        {
          "name": "",
          "type": "uint256"
        }
      ],
      "payable": false,
      "stateMutability": "view",
      "type": "function"
    },
    {
      "constant": true,
      "inputs": [],
      "name": "minutesSinceLastWinning",
      "outputs": [
        {
          "name": "",
          "type": "uint256"
        }
      ],
      "payable": false,
      "stateMutability": "view",
      "type": "function"
    },
    {
      "constant": true,
      "inputs": [],
      "name": "loserCount",
      "outputs": [
        {
          "name": "",
          "type": "uint256"
        }
      ],
      "payable": false,
      "stateMutability": "view",
      "type": "function"
    },
    {
      "constant": false,
      "inputs": [
        {
          "name": "_address",
          "type": "address"
        }
      ],
      "name": "checkWinning",
      "outputs": [
        {
          "components": [
            {
              "name": "name",
              "type": "string"
            },
            {
              "name": "_address",
              "type": "address"
            },
            {
              "name": "guess",
              "type": "uint256"
            },
            {
              "name": "guessedAt",
              "type": "uint256"
            }
          ],
          "name": "",
          "type": "tuple"
        }
      ],
      "payable": false,
      "stateMutability": "nonpayable",
      "type": "function"
    },
    {
      "constant": false,
      "inputs": [
        {
          "name": "guess",
          "type": "uint256"
        },
        {
          "name": "name",
          "type": "string"
        },
        {
          "name": "caller",
          "type": "address"
        }
      ],
      "name": "guess",
      "outputs": [
        {
          "name": "",
          "type": "bool"
        }
      ],
      "payable": false,
      "stateMutability": "nonpayable",
      "type": "function"
    },
    {
      "constant": true,
      "inputs": [],
      "name": "daysSinceLastWinning",
      "outputs": [
        {
          "name": "",
          "type": "uint256"
        }
      ],
      "payable": false,
      "stateMutability": "view",
      "type": "function"
    },
    {
      "constant": true,
      "inputs": [],
      "name": "totalGuesses",
      "outputs": [
        {
          "name": "",
          "type": "uint256"
        }
      ],
      "payable": false,
      "stateMutability": "view",
      "type": "function"
    },
    {
      "constant": false,
      "inputs": [],
      "name": "getLastWinnerInfo1",
      "outputs": [
        {
          "name": "winnerAddress",
          "type": "address"
        },
        {
          "name": "name",
          "type": "string"
        },
        {
          "name": "guess",
          "type": "uint256"
        },
        {
          "name": "guessedAt",
          "type": "uint256"
        }
      ],
      "payable": false,
      "stateMutability": "nonpayable",
      "type": "function"
    },
    {
      "constant": true,
      "inputs": [],
      "name": "winnerCount",
      "outputs": [
        {
          "name": "",
          "type": "uint256"
        }
      ],
      "payable": false,
      "stateMutability": "view",
      "type": "function"
    },
    {
      "constant": false,
      "inputs": [],
      "name": "getLastWinnerInfo",
      "outputs": [
        {
          "components": [
            {
              "name": "name",
              "type": "string"
            },
            {
              "name": "_address",
              "type": "address"
            },
            {
              "name": "guess",
              "type": "uint256"
            },
            {
              "name": "guessedAt",
              "type": "uint256"
            }
          ],
          "name": "",
          "type": "tuple"
        }
      ],
      "payable": false,
      "stateMutability": "nonpayable",
      "type": "function"
    },
    {
      "inputs": [
        {
          "name": "num1",
          "type": "uint256"
        },
        {
          "name": "num2",
          "type": "uint256"
        },
        {
          "name": "num3",
          "type": "uint256"
        }
      ],
      "payable": false,
      "stateMutability": "nonpayable",
      "type": "constructor"
    }
  ],
  "bytecode": "0x6060604052341561000f57600080fd5b60405160608062000d9883398101604052808051906020019091908051906020019091908051906020019091905050600183101580156100505750600a8311155b801561006a5750600182101580156100695750600a8211155b5b80156100845750600181101580156100835750600a8111155b5b15610105576005805480600101828161009d919061010d565b916000526020600020900160008590919091505550600580548060010182816100c6919061010d565b916000526020600020900160008490919091505550600580548060010182816100ef919061010d565b9160005260206000209001600083909190915055505b50505061015e565b815481835581811511610134578183600052602060002091820191016101339190610139565b5b505050565b61015b91905b8082111561015757600081600090555060010161013f565b5090565b90565b610c2a806200016e6000396000f3006060604052600436106100a4576000357c0100000000000000000000000000000000000000000000000000000000900463ffffffff16806315153cdc146100a957806348992bfa146100d2578063524799a7146100fb5780635249c23114610124578063602d2a63146101715780636d48a0431461020e5780638ef2824914610237578063a2e4247514610260578063caa02e081461032f578063ee040eb914610358575b600080fd5b34156100b457600080fd5b6100bc610381565b6040518082815260200191505060405180910390f35b34156100dd57600080fd5b6100e5610391565b6040518082815260200191505060405180910390f35b341561010657600080fd5b61010e6103a0565b6040518082815260200191505060405180910390f35b341561012f57600080fd5b61015b600480803573ffffffffffffffffffffffffffffffffffffffff169060200190919050506103a6565b6040518082815260200191505060405180910390f35b341561017c57600080fd5b6101f4600480803590602001909190803590602001908201803590602001908080601f0160208091040260200160405190810160405280939291908181526020018383808284378201915050505050509190803573ffffffffffffffffffffffffffffffffffffffff1690602001909190505061050b565b604051808215151515815260200191505060405180910390f35b341561021957600080fd5b6102216106df565b6040518082815260200191505060405180910390f35b341561024257600080fd5b61024a6106f0565b6040518082815260200191505060405180910390f35b341561026b57600080fd5b6102736106fe565b604051808573ffffffffffffffffffffffffffffffffffffffff1673ffffffffffffffffffffffffffffffffffffffff16815260200180602001848152602001838152602001828103825285818151815260200191508051906020019080838360005b838110156102f15780820151818401526020810190506102d6565b50505050905090810190601f16801561031e5780820380516001836020036101000a031916815260200191505b509550505050505060405180910390f35b341561033a57600080fd5b610342610961565b6040518082815260200191505060405180910390f35b341561036357600080fd5b61036b610967565b6040518082815260200191505060405180910390f35b6000610e10600454420302905090565b6000603c600454420302905090565b60025481565b6103ae610aec565b6000808373ffffffffffffffffffffffffffffffffffffffff1673ffffffffffffffffffffffffffffffffffffffff16815260200190815260200160002060806040519081016040529081600082018054600181600116156101000203166002900480601f0160208091040260200160405190810160405280929190818152602001828054600181600116156101000203166002900480156104915780601f1061046657610100808354040283529160200191610491565b820191906000526020600020905b81548152906001019060200180831161047457829003601f168201915b505050505081526020016001820160009054906101000a900473ffffffffffffffffffffffffffffffffffffffff1673ffffffffffffffffffffffffffffffffffffffff1673ffffffffffffffffffffffffffffffffffffffff168152602001600282015481526020016003820154815250509050919050565b600080600085101580156105205750600a8511155b151561052b57600080fd5b600090505b6005805490508110156106c0578460058281548110151561054d57fe5b90600052602060002090015414156106b3576003600081548092919060010191905055506080604051908101604052808581526020018473ffffffffffffffffffffffffffffffffffffffff168152602001868152602001428152506000808573ffffffffffffffffffffffffffffffffffffffff1673ffffffffffffffffffffffffffffffffffffffff1681526020019081526020016000206000820151816000019080519060200190610603929190610b31565b5060208201518160010160006101000a81548173ffffffffffffffffffffffffffffffffffffffff021916908373ffffffffffffffffffffffffffffffffffffffff160217905550604082015181600201556060820151816003015590505082600160006101000a81548173ffffffffffffffffffffffffffffffffffffffff021916908373ffffffffffffffffffffffffffffffffffffffff16021790555042600481905550600191506106d7565b8080600101915050610530565b600260008154809291906001019190505550600091505b509392505050565b600062015180600454420302905090565b600060025460035401905090565b6000610708610bb1565b600080600080600160009054906101000a900473ffffffffffffffffffffffffffffffffffffffff1673ffffffffffffffffffffffffffffffffffffffff1673ffffffffffffffffffffffffffffffffffffffff16815260200190815260200160002060010160009054906101000a900473ffffffffffffffffffffffffffffffffffffffff169350600080600160009054906101000a900473ffffffffffffffffffffffffffffffffffffffff1673ffffffffffffffffffffffffffffffffffffffff1673ffffffffffffffffffffffffffffffffffffffff1681526020019081526020016000206000018054600181600116156101000203166002900480601f0160208091040260200160405190810160405280929190818152602001828054600181600116156101000203166002900480156108885780601f1061085d57610100808354040283529160200191610888565b820191906000526020600020905b81548152906001019060200180831161086b57829003601f168201915b50505050509250600080600160009054906101000a900473ffffffffffffffffffffffffffffffffffffffff1673ffffffffffffffffffffffffffffffffffffffff1673ffffffffffffffffffffffffffffffffffffffff168152602001908152602001600020600201549150600080600160009054906101000a900473ffffffffffffffffffffffffffffffffffffffff1673ffffffffffffffffffffffffffffffffffffffff1673ffffffffffffffffffffffffffffffffffffffff16815260200190815260200160002060030154905090919293565b60035481565b61096f610aec565b600080600160009054906101000a900473ffffffffffffffffffffffffffffffffffffffff1673ffffffffffffffffffffffffffffffffffffffff1673ffffffffffffffffffffffffffffffffffffffff16815260200190815260200160002060806040519081016040529081600082018054600181600116156101000203166002900480601f016020809104026020016040519081016040528092919081815260200182805460018160011615610100020316600290048015610a745780601f10610a4957610100808354040283529160200191610a74565b820191906000526020600020905b815481529060010190602001808311610a5757829003601f168201915b505050505081526020016001820160009054906101000a900473ffffffffffffffffffffffffffffffffffffffff1673ffffffffffffffffffffffffffffffffffffffff1673ffffffffffffffffffffffffffffffffffffffff16815260200160028201548152602001600382015481525050905090565b608060405190810160405280610b00610bc5565b8152602001600073ffffffffffffffffffffffffffffffffffffffff16815260200160008152602001600081525090565b828054600181600116156101000203166002900490600052602060002090601f016020900481019282601f10610b7257805160ff1916838001178555610ba0565b82800160010185558215610ba0579182015b82811115610b9f578251825591602001919060010190610b84565b5b509050610bad9190610bd9565b5090565b602060405190810160405280600081525090565b602060405190810160405280600081525090565b610bfb91905b80821115610bf7576000816000905550600101610bdf565b5090565b905600a165627a7a723058209f9b13ac19a858dbc8b06c0918b865c34956ff095543ede9922707cc67d6240d0029",
  "source": "pragma solidity ^0.4.0;\r\n\r\ncontract MultiNumberBettingV4 {\r\n\r\n  struct Winner {\r\n\tstring name;\r\n\taddress _address;\r\n    uint guess;\r\n    uint guessedAt;\r\n  }\r\n  \r\n  mapping (address => Winner) Winners;\r\n  address lastWinnerAddress;  \r\n  uint public loserCount;\r\n  uint public winnerCount;\r\n  uint lastWinnerAt;\r\n  uint[] numArray;\r\n  \r\n function MultiNumberBettingV4(uint num1, uint num2, uint num3) {\r\n    if ((num1 >= 1 && num1 <=10 ) && \r\n    \t(num2 >= 1 && num2 <=10) && \r\n    \t(num3 >= 1 && num3 <=10))\r\n    {\r\n    \tnumArray.push(num1);\r\n    \tnumArray.push(num2);\r\n    \tnumArray.push(num3);\r\n    \t\r\n    } \r\n  }\r\n  \r\n  function guess(uint guess, string name, address caller) returns(bool)\r\n  {\r\n        require(guess >=0 && guess <= 10);\r\n  \t\t\r\n        for (uint i = 0; i < numArray.length; i++)\r\n        {\r\n        \tif (numArray[i] == guess)  \r\n        \t{\r\n        \t\twinnerCount++;\r\n        \t\tWinners[caller] = Winner(name, caller, guess, now);\r\n        \t\tlastWinnerAddress = caller;\r\n        \t\tlastWinnerAt = now;\r\n        \t\treturn true;\r\n        \t}\r\n        }\r\n\t\tloserCount++;        \r\n        return false;\r\n  }\r\n  \r\n  function totalGuesses() constant returns (uint)\r\n  {\r\n  \treturn (winnerCount + loserCount);\r\n  }\r\n\r\n  /*  \r\n  function getWinnerName() constant returns (string)\r\n  {\r\n    bytes memory _lastName = bytes(lastWinnerName);\r\n    if (_lastName.length == 0) {\r\n        return '***';\r\n    }\r\n    else\r\n    {\r\n\t    bytes memory bytesStringTrimmed = new bytes(3);\r\n\t    for (uint j = 0; j < 3; j++) {\r\n\t        bytesStringTrimmed[j] = _lastName[j];\r\n\t    }\r\n\t    return string(bytesStringTrimmed);    \t\r\n    }  \t\r\n  }      \r\n  */\r\n  \r\n  function getLastWinnerInfo() returns (Winner)\r\n  {\r\n\treturn Winners[lastWinnerAddress];  \t\r\n  }\r\n  \r\n  \r\n  function getLastWinnerInfo1() returns (address winnerAddress,\r\n                                         string  name,\r\n                                         uint    guess,\r\n                                         uint    guessedAt){\r\n    winnerAddress = Winners[lastWinnerAddress]._address;\r\n    name =  Winners[lastWinnerAddress].name;\r\n    guess = Winners[lastWinnerAddress].guess;\r\n    guessedAt = Winners[lastWinnerAddress].guessedAt;\r\n  }\r\n  \r\n    \r\n  function checkWinning(address _address) returns(Winner)\r\n  {\r\n  \treturn Winners[_address];\r\n  }  \r\n  \r\n  function daysSinceLastWinning() constant returns (uint)\r\n  {\r\n  \t\treturn ( (now - lastWinnerAt) * 1 days );\t\r\n  }\r\n  \r\n  function hoursSinceLastWinning() constant returns (uint)\r\n  {\r\n  \t\treturn ( (now - lastWinnerAt) * 1 hours );\r\n  }\r\n\r\n  function minutesSinceLastWinning() constant returns (uint)\r\n  {\r\n  \t\treturn ( (now - lastWinnerAt) * 1 minutes);\r\n  }\r\n \r\n}",
  "sourcePath": "/home/vagrant/SravzNew/Sravz.BlockChain/contracts/MultiNumberBettingV4.sol",
  "compiler": {
    "name": "solc",
    "version": "0.4.18+commit.9cf6e910.Emscripten.clang"
  },
  "schemaVersion": "1.0.1",
  "updatedAt": "2017-12-20T03:21:18.108Z"
}