{
  "contractName": "MultiNumberBettingV6",
  "abi": [
    {
      "constant": false,
      "inputs": [],
      "name": "getBalance",
      "outputs": [
        {
          "name": "",
          "type": "uint256"
        }
      ],
      "payable": false,
      "stateMutability": "nonpayable",
      "type": "function"
    },
    {
      "constant": true,
      "inputs": [],
      "name": "hoursSinceLastWinning",
      "outputs": [
        {
          "name": "",
          "type": "uint256"
        }
      ],
      "payable": false,
      "stateMutability": "view",
      "type": "function"
    },
    {
      "constant": true,
      "inputs": [
        {
          "name": "amt",
          "type": "uint256"
        }
      ],
      "name": "lastReceived",
      "outputs": [
        {
          "name": "",
          "type": "uint256"
        }
      ],
      "payable": false,
      "stateMutability": "view",
      "type": "function"
    },
    {
      "constant": true,
      "inputs": [],
      "name": "lastCaller",
      "outputs": [
        {
          "name": "",
          "type": "string"
        }
      ],
      "payable": false,
      "stateMutability": "view",
      "type": "function"
    },
    {
      "constant": true,
      "inputs": [],
      "name": "lastSender",
      "outputs": [
        {
          "name": "",
          "type": "address"
        }
      ],
      "payable": false,
      "stateMutability": "view",
      "type": "function"
    },
    {
      "constant": false,
      "inputs": [
        {
          "name": "amt",
          "type": "uint256"
        }
      ],
      "name": "ownerWithdraw",
      "outputs": [
        {
          "components": [
            {
              "name": "name",
              "type": "string"
            },
            {
              "name": "_address",
              "type": "address"
            },
            {
              "name": "guess",
              "type": "uint256"
            },
            {
              "name": "guessedAt",
              "type": "uint256"
            },
            {
              "name": "ethersReceived",
              "type": "uint256"
            }
          ],
          "name": "",
          "type": "bool"
        }
      ],
      "payable": false,
      "stateMutability": "nonpayable",
      "type": "function"
    },
    {
      "constant": true,
      "inputs": [],
      "name": "minutesSinceLastWinning",
      "outputs": [
        {
          "name": "",
          "type": "uint256"
        }
      ],
      "payable": false,
      "stateMutability": "view",
      "type": "function"
    },
    {
      "constant": true,
      "inputs": [],
      "name": "loserCount",
      "outputs": [
        {
          "name": "",
          "type": "uint256"
        }
      ],
      "payable": false,
      "stateMutability": "view",
      "type": "function"
    },
    {
      "constant": false,
      "inputs": [
        {
          "name": "_address",
          "type": "address"
        },
        {
          "name": "name",
          "type": "string"
        }
      ],
      "name": "checkWinning",
      "outputs": [
        {
          "name": "",
          "type": "tuple",
          "components": [
            {
              "name": "name",
              "type": "string"
            },
            {
              "name": "_address",
              "type": "address"
            },
            {
              "name": "guess",
              "type": "uint256"
            },
            {
              "name": "guessedAt",
              "type": "uint256"
            },
            {
              "name": "ethersReceived",
              "type": "uint256"
            }
          ]
        }
      ],
      "payable": false,
      "stateMutability": "nonpayable",
      "type": "function"
    },
    {
      "constant": true,
      "inputs": [],
      "name": "daysSinceLastWinning",
      "outputs": [
        {
          "name": "",
          "type": "uint256"
        }
      ],
      "payable": false,
      "stateMutability": "view",
      "type": "function"
    },
    {
      "constant": false,
      "inputs": [
        {
          "name": "guess",
          "type": "uint256"
        },
        {
          "name": "name",
          "type": "string"
        }
      ],
      "name": "guess",
      "outputs": [
        {
          "name": "",
          "type": "bool"
        }
      ],
      "payable": true,
      "stateMutability": "payable",
      "type": "function"
    },
    {
      "constant": true,
      "inputs": [
        {
          "name": "guess",
          "type": "uint256"
        },
        {
          "name": "name",
          "type": "string"
        }
      ],
      "name": "owner",
      "outputs": [
        {
          "name": "",
          "type": "address"
        },
        {
          "name": "name",
          "type": "string"
        },
        {
          "name": "guess",
          "type": "uint256"
        },
        {
          "name": "guessedAt",
          "type": "uint256"
        },
        {
          "name": "ethersReceived",
          "type": "uint256"
        }
      ],
      "payable": false,
      "stateMutability": "view",
      "type": "function"
    },
    {
      "constant": true,
      "inputs": [],
      "name": "totalGuesses",
      "outputs": [
        {
          "name": "",
          "type": "uint256"
        }
      ],
      "payable": false,
      "stateMutability": "view",
      "type": "function"
    },
    {
      "constant": false,
      "inputs": [],
      "name": "getLastWinnerInfo1",
      "outputs": [
        {
          "components": [
            {
              "name": "name",
              "type": "string"
            },
            {
              "name": "_address",
              "type": "address"
            },
            {
              "name": "guess",
              "type": "uint256"
            },
            {
              "name": "guessedAt",
              "type": "uint256"
            },
            {
              "name": "ethersReceived",
              "type": "uint256"
            }
          ],
          "name": "winnerAddress",
          "type": "address"
        },
        {
          "name": "name",
          "type": "string"
        },
        {
          "name": "guess",
          "type": "uint256"
        },
        {
          "name": "guessedAt",
          "type": "uint256"
        },
        {
          "name": "ethersReceived",
          "type": "uint256"
        }
      ],
      "payable": false,
      "stateMutability": "nonpayable",
      "type": "function"
    },
    {
      "inputs": [
        {
          "name": "name",
          "type": "string"
        },
        {
          "name": "num2",
          "type": "uint256"
        },
        {
          "name": "num3",
          "type": "uint256"
        }
      ],
      "payable": true,
      "stateMutability": "payable",
      "type": "function",
      "constant": false,
      "name": "receiveEthers",
      "outputs": [
        {
          "name": "winnerAddress",
          "type": "address"
        },
        {
          "name": "name",
          "type": "string"
        },
        {
          "name": "guess",
          "type": "uint256"
        },
        {
          "name": "guessedAt",
          "type": "uint256"
        },
        {
          "name": "ethersReceived",
          "type": "uint256"
        }
      ]
    },
    {
      "constant": true,
      "inputs": [
        {
          "name": "name",
          "type": "string"
        }
      ],
      "name": "winnerCount",
      "outputs": [
        {
          "name": "",
          "type": "uint256"
        }
      ],
      "payable": false,
      "stateMutability": "view",
      "type": "function"
    },
    {
      "constant": false,
      "inputs": [],
      "name": "getLastWinnerInfo",
      "outputs": [
        {
          "name": "",
          "type": "tuple",
          "components": [
            {
              "name": "name",
              "type": "string"
            },
            {
              "name": "_address",
              "type": "address"
            },
            {
              "name": "guess",
              "type": "uint256"
            },
            {
              "name": "guessedAt",
              "type": "uint256"
            },
            {
              "name": "ethersReceived",
              "type": "uint256"
            }
          ]
        }
      ],
      "payable": false,
      "stateMutability": "nonpayable",
      "type": "function"
    },
    {
      "constant": false,
      "inputs": [
        {
          "name": "num1",
          "type": "uint256"
        },
        {
          "name": "num2",
          "type": "uint256"
        },
        {
          "name": "num3",
          "type": "uint256"
        }
      ],
      "name": "getLastWinnerInfo",
      "outputs": [
        {
          "components": [
            {
              "name": "name",
              "type": "string"
            },
            {
              "name": "_address",
              "type": "address"
            },
            {
              "name": "guess",
              "type": "uint256"
            },
            {
              "name": "guessedAt",
              "type": "uint256"
            },
            {
              "name": "ethersReceived",
              "type": "uint256"
            }
          ],
          "name": "",
          "type": "tuple"
        }
      ],
      "payable": false,
      "stateMutability": "nonpayable",
      "type": "constructor"
    },
    {
      "inputs": [
        {
          "name": "num1",
          "type": "uint256"
        },
        {
          "name": "num2",
          "type": "uint256"
        },
        {
          "name": "num3",
          "type": "uint256"
        }
      ],
      "payable": true,
      "stateMutability": "payable",
      "type": "fallback"
    },
    {
      "payable": true,
      "stateMutability": "payable",
      "type": "fallback"
    }
  ],
  "bytecode": "0x6060604052600060055534156200001557600080fd5b604051606080620014278339810160405280805190602001909190805190602001909190805190602001909190505060018310158015620000575750600a8311155b801562000073575060018210158015620000725750600a8211155b5b80156200008f5750600181101580156200008e5750600a8111155b5b15620001175760098054806001018281620000ab919062000161565b91600052602060002090016000859091909150555060098054806001018281620000d6919062000161565b9160005260206000209001600084909190915055506009805480600101828162000101919062000161565b9160005260206000209001600083909190915055505b33600160006101000a81548173ffffffffffffffffffffffffffffffffffffffff021916908373ffffffffffffffffffffffffffffffffffffffff160217905550505050620001b8565b8154818355818115116200018b578183600052602060002091820191016200018a919062000190565b5b505050565b620001b591905b80821115620001b157600081600090555060010162000197565b5090565b90565b61125f80620001c86000396000f3006060604052600436106100f1576000357c0100000000000000000000000000000000000000000000000000000000900463ffffffff16806312065fe0146100f357806315153cdc1461011c5780631b2961d6146101455780632113522a1461016e578063256fec88146101fc57806333f707d11461025157806348992bfa1461028c578063524799a7146102b55780635249c231146102de5780636d48a0431461032b578063773f5edc146103545780638da5cb5b146103c75780638ef282491461041c578063a2e4247514610445578063b08c8e451461051b578063caa02e081461056d578063ee040eb914610596575b005b34156100fe57600080fd5b6101066105bf565b6040518082815260200191505060405180910390f35b341561012757600080fd5b61012f6105de565b6040518082815260200191505060405180910390f35b341561015057600080fd5b6101586105ee565b6040518082815260200191505060405180910390f35b341561017957600080fd5b6101816105f4565b6040518080602001828103825283818151815260200191508051906020019080838360005b838110156101c15780820151818401526020810190506101a6565b50505050905090810190601f1680156101ee5780820380516001836020036101000a031916815260200191505b509250505060405180910390f35b341561020757600080fd5b61020f610692565b604051808273ffffffffffffffffffffffffffffffffffffffff1673ffffffffffffffffffffffffffffffffffffffff16815260200191505060405180910390f35b341561025c57600080fd5b61027260048080359060200190919050506106b8565b604051808215151515815260200191505060405180910390f35b341561029757600080fd5b61029f6107bc565b6040518082815260200191505060405180910390f35b34156102c057600080fd5b6102c86107cb565b6040518082815260200191505060405180910390f35b34156102e957600080fd5b610315600480803573ffffffffffffffffffffffffffffffffffffffff169060200190919050506107d1565b6040518082815260200191505060405180910390f35b341561033657600080fd5b61033e610940565b6040518082815260200191505060405180910390f35b6103ad600480803590602001909190803590602001908201803590602001908080601f01602080910402602001604051908101604052809392919081815260200183838082843782019150505050505091905050610951565b604051808215151515815260200191505060405180910390f35b34156103d257600080fd5b6103da610b63565b604051808273ffffffffffffffffffffffffffffffffffffffff1673ffffffffffffffffffffffffffffffffffffffff16815260200191505060405180910390f35b341561042757600080fd5b61042f610b89565b6040518082815260200191505060405180910390f35b341561045057600080fd5b610458610b97565b604051808673ffffffffffffffffffffffffffffffffffffffff1673ffffffffffffffffffffffffffffffffffffffff16815260200180602001858152602001848152602001838152602001828103825286818151815260200191508051906020019080838360005b838110156104dc5780820151818401526020810190506104c1565b50505050905090810190601f1680156105095780820380516001836020036101000a031916815260200191505b50965050505050505060405180910390f35b61056b600480803590602001908201803590602001908080601f01602080910402602001604051908101604052809392919081815260200183838082843782019150505050505091905050610ea3565b005b341561057857600080fd5b610580610f05565b6040518082815260200191505060405180910390f35b34156105a157600080fd5b6105a9610f0b565b6040518082815260200191505060405180910390f35b60003073ffffffffffffffffffffffffffffffffffffffff1631905090565b6000610e10600854420302905090565b60055481565b60038054600181600116156101000203166002900480601f01602080910402602001604051908101604052809291908181526020018280546001816001161561010002031660029004801561068a5780601f1061065f5761010080835404028352916020019161068a565b820191906000526020600020905b81548152906001019060200180831161066d57829003601f168201915b505050505081565b600460009054906101000a900473ffffffffffffffffffffffffffffffffffffffff1681565b6000600160009054906101000a900473ffffffffffffffffffffffffffffffffffffffff1673ffffffffffffffffffffffffffffffffffffffff163373ffffffffffffffffffffffffffffffffffffffff1614156107b2576601c6bf52634000600202823073ffffffffffffffffffffffffffffffffffffffff16310311151561074157600080fd5b600160009054906101000a900473ffffffffffffffffffffffffffffffffffffffff1673ffffffffffffffffffffffffffffffffffffffff166108fc670de0b6b3a764000084029081150290604051600060405180830381858888f1935050505015156107ad57600080fd5b6107b7565b600080fd5b919050565b6000603c600854420302905090565b60065481565b6107d961109a565b6000808373ffffffffffffffffffffffffffffffffffffffff1673ffffffffffffffffffffffffffffffffffffffff16815260200190815260200160002060a06040519081016040529081600082018054600181600116156101000203166002900480601f0160208091040260200160405190810160405280929190818152602001828054600181600116156101000203166002900480156108bc5780601f10610891576101008083540402835291602001916108bc565b820191906000526020600020905b81548152906001019060200180831161089f57829003601f168201915b505050505081526020016001820160009054906101000a900473ffffffffffffffffffffffffffffffffffffffff1673ffffffffffffffffffffffffffffffffffffffff1673ffffffffffffffffffffffffffffffffffffffff16815260200160028201548152602001600382015481526020016004820154815250509050919050565b600062015180600854420302905090565b600080600084101580156109665750600a8411155b151561097157600080fd5b6601c6bf526340006002023073ffffffffffffffffffffffffffffffffffffffff16311115156109a057600080fd5b600090505b600980549050811015610b4557836009828154811015156109c257fe5b9060005260206000209001541415610b385760076000815480929190600101919050555060a0604051908101604052808481526020013373ffffffffffffffffffffffffffffffffffffffff168152602001858152602001428152602001348152506000803373ffffffffffffffffffffffffffffffffffffffff1673ffffffffffffffffffffffffffffffffffffffff1681526020019081526020016000206000820151816000019080519060200190610a7e9291906110e6565b5060208201518160010160006101000a81548173ffffffffffffffffffffffffffffffffffffffff021916908373ffffffffffffffffffffffffffffffffffffffff16021790555060408201518160020155606082015181600301556080820151816004015590505033600260006101000a81548173ffffffffffffffffffffffffffffffffffffffff021916908373ffffffffffffffffffffffffffffffffffffffff1602179055504260088190555060019150610b5c565b80806001019150506109a5565b600660008154809291906001019190505550600091505b5092915050565b600160009054906101000a900473ffffffffffffffffffffffffffffffffffffffff1681565b600060065460075401905090565b6000610ba1611166565b6000806000806000600260009054906101000a900473ffffffffffffffffffffffffffffffffffffffff1673ffffffffffffffffffffffffffffffffffffffff1673ffffffffffffffffffffffffffffffffffffffff16815260200190815260200160002060010160009054906101000a900473ffffffffffffffffffffffffffffffffffffffff169450600080600260009054906101000a900473ffffffffffffffffffffffffffffffffffffffff1673ffffffffffffffffffffffffffffffffffffffff1673ffffffffffffffffffffffffffffffffffffffff1681526020019081526020016000206000018054600181600116156101000203166002900480601f016020809104026020016040519081016040528092919081815260200182805460018160011615610100020316600290048015610d235780601f10610cf857610100808354040283529160200191610d23565b820191906000526020600020905b815481529060010190602001808311610d0657829003601f168201915b50505050509350600080600260009054906101000a900473ffffffffffffffffffffffffffffffffffffffff1673ffffffffffffffffffffffffffffffffffffffff1673ffffffffffffffffffffffffffffffffffffffff168152602001908152602001600020600201549250600080600260009054906101000a900473ffffffffffffffffffffffffffffffffffffffff1673ffffffffffffffffffffffffffffffffffffffff1673ffffffffffffffffffffffffffffffffffffffff168152602001908152602001600020600301549150600080600260009054906101000a900473ffffffffffffffffffffffffffffffffffffffff1673ffffffffffffffffffffffffffffffffffffffff1673ffffffffffffffffffffffffffffffffffffffff1681526020019081526020016000206004015490508473ffffffffffffffffffffffffffffffffffffffff166108fc829081150290604051600060405180830381858888f193505050501515610e9c57600080fd5b9091929394565b33600460006101000a81548173ffffffffffffffffffffffffffffffffffffffff021916908373ffffffffffffffffffffffffffffffffffffffff160217905550346005819055508060039080519060200190610f0192919061117a565b5050565b60075481565b610f1361109a565b600080600260009054906101000a900473ffffffffffffffffffffffffffffffffffffffff1673ffffffffffffffffffffffffffffffffffffffff1673ffffffffffffffffffffffffffffffffffffffff16815260200190815260200160002060a06040519081016040529081600082018054600181600116156101000203166002900480601f0160208091040260200160405190810160405280929190818152602001828054600181600116156101000203166002900480156110185780601f10610fed57610100808354040283529160200191611018565b820191906000526020600020905b815481529060010190602001808311610ffb57829003601f168201915b505050505081526020016001820160009054906101000a900473ffffffffffffffffffffffffffffffffffffffff1673ffffffffffffffffffffffffffffffffffffffff1673ffffffffffffffffffffffffffffffffffffffff1681526020016002820154815260200160038201548152602001600482015481525050905090565b60a0604051908101604052806110ae6111fa565b8152602001600073ffffffffffffffffffffffffffffffffffffffff1681526020016000815260200160008152602001600081525090565b828054600181600116156101000203166002900490600052602060002090601f016020900481019282601f1061112757805160ff1916838001178555611155565b82800160010185558215611155579182015b82811115611154578251825591602001919060010190611139565b5b509050611162919061120e565b5090565b602060405190810160405280600081525090565b828054600181600116156101000203166002900490600052602060002090601f016020900481019282601f106111bb57805160ff19168380011785556111e9565b828001600101855582156111e9579182015b828111156111e85782518255916020019190600101906111cd565b5b5090506111f6919061120e565b5090565b602060405190810160405280600081525090565b61123091905b8082111561122c576000816000905550600101611214565b5090565b905600a165627a7a723058209ff98a9a3426b61eaaf87f789566414aacd7ce9e12f4ee09dd7c84e9ad7eb2520029",
  "source": "pragma solidity ^0.4.0;\r\n\r\nimport \"./MultiNumberBettingAbstractV2.sol\";\r\n\r\ncontract MultiNumberBettingV6 is MultiNumberBettingAbstractV2 { \r\n  \r\n  mapping (address => Winner) Winners;\r\n  address public owner;\r\n  address lastWinnerAddress;\r\n  string  public  lastCaller;\r\n  address public  lastSender;\r\n  uint    public  lastReceived=0;\r\n  uint public loserCount;\r\n  uint public winnerCount;\r\n  uint lastWinnerAt;\r\n  uint[] numArray;\r\n\r\n function MultiNumberBettingV6(uint num1, uint num2, uint num3) {\r\n    if ((num1 >= 1 && num1 <=10 ) && \r\n    \t(num2 >= 1 && num2 <=10) && \r\n    \t(num3 >= 1 && num3 <=10))\r\n    {\r\n    \tnumArray.push(num1);\r\n    \tnumArray.push(num2);\r\n    \tnumArray.push(num3);\r\n    \t\r\n    } \r\n    \r\n    owner = msg.sender;\r\n  }\r\n      \r\n  // Restricts execution by owner only\r\n  modifier  ownerOnly {\r\n    if(msg.sender == owner){\r\n      _;\r\n    } else {\r\n      revert();\r\n    }\r\n  }\r\n\r\n  function receiveEthers(string name) payable   {\r\n    lastSender = msg.sender;\r\n    lastReceived = msg.value;\r\n    lastCaller = name;\r\n  }\r\n        \r\n function ownerWithdraw(uint amt) ownerOnly returns (bool) {\r\n    if (this.balance - amt <= 2 * MAX_BET)\r\n    {\r\n    \trevert();\r\n    }\r\n \towner.transfer(amt * 1 ether);\r\n }\r\n  \r\n  function guess(uint guess, string name) payable returns(bool)\r\n  {\r\n        require(guess >=0 && guess <= 10);\r\n  \t\t\r\n  \t\trequire(this.balance > 2*MAX_BET);\r\n  \t\t\r\n        for (uint i = 0; i < numArray.length; i++)\r\n        {\r\n        \tif (numArray[i] == guess)  \r\n        \t{\r\n        \t\twinnerCount++;\r\n        \t\tWinners[msg.sender] = Winner(name, msg.sender, guess, now, msg.value);\r\n        \t\tlastWinnerAddress = msg.sender;\r\n        \t\tlastWinnerAt = now;\r\n        \t\treturn true;\r\n        \t}\r\n        }\r\n\t\tloserCount++;        \r\n        return false;\r\n  }\r\n  \r\n  function totalGuesses() constant returns (uint)\r\n  {\r\n  \treturn (winnerCount + loserCount);\r\n  }\r\n\r\n  /*  \r\n  function getWinnerName() constant returns (string)\r\n  {\r\n    bytes memory _lastName = bytes(lastWinnerName);\r\n    if (_lastName.length == 0) {\r\n        return '***';\r\n    }\r\n    else\r\n    {\r\n\t    bytes memory bytesStringTrimmed = new bytes(3);\r\n\t    for (uint j = 0; j < 3; j++) {\r\n\t        bytesStringTrimmed[j] = _lastName[j];\r\n\t    }\r\n\t    return string(bytesStringTrimmed);    \t\r\n    }  \t\r\n  }      \r\n  */\r\n  \r\n  function getLastWinnerInfo() returns (Winner)\r\n  {\r\n\treturn Winners[lastWinnerAddress];  \t\r\n  }\r\n  \r\n  \r\n  function getLastWinnerInfo1() returns (address winnerAddress,\r\n                                         string  name,\r\n                                         uint    guess,\r\n                                         uint    guessedAt,\r\n                                         uint    ethersReceived){\r\n    winnerAddress = Winners[lastWinnerAddress]._address;\r\n    name =  Winners[lastWinnerAddress].name;\r\n    guess = Winners[lastWinnerAddress].guess;\r\n    guessedAt = Winners[lastWinnerAddress].guessedAt;\r\n    ethersReceived = Winners[lastWinnerAddress].ethersReceived;\r\n    winnerAddress.transfer(ethersReceived);\r\n  }\r\n  \r\n    \r\n  function checkWinning(address _address) returns(Winner)\r\n  {\r\n  \t return Winners[_address];\r\n  }  \r\n  \r\n  function daysSinceLastWinning() constant returns (uint)\r\n  {\r\n  \t\treturn ( (now - lastWinnerAt) * 1 days );\t\r\n  }\r\n  \r\n  function hoursSinceLastWinning() constant returns (uint)\r\n  {\r\n  \t\treturn ( (now - lastWinnerAt) * 1 hours );\r\n  }\r\n\r\n  function minutesSinceLastWinning() constant returns (uint)\r\n  {\r\n  \t\treturn ( (now - lastWinnerAt) * 1 minutes);\r\n  }\r\n  \r\n  function getBalance() returns (uint) {\r\n        return this.balance;\r\n  }\r\n \r\n  // Fallback function\r\n  // This function gets invoked when contract receives ethers\r\n  // without the function data. \r\n  function() payable  {\r\n    // Max gas that can be spent in this function is 2300\r\n    // msg.value has the number wei received\r\n    // msg.sender has the address of the sender\r\n\r\n    // As a BEST practice just log an Event here\r\n\r\n    // If you do not want to receive ethers in the contract\r\n    // then throw exception here\r\n  } \r\n}\r\n",
  "sourcePath": "/home/vagrant/SravzNew/Sravz.BlockChain/contracts/MultiNumberBettingV6.sol",
  "compiler": {
    "name": "solc",
    "version": "0.4.18+commit.9cf6e910.Emscripten.clang"
  },
  "schemaVersion": "1.0.1",
  "updatedAt": "2017-12-20T03:21:18.197Z"
}